{
  "address": "0x5FC8d32690cc91D4c39d9d3abcBD16989F875707",
  "abi": [
    {
      "inputs": [
        {
          "internalType": "address",
          "name": "_VRFConsumerBaseV2",
          "type": "address"
        },
        {
          "internalType": "uint256",
          "name": "_i_mintFee",
          "type": "uint256"
        },
        {
          "internalType": "bytes32",
          "name": "_gaslane",
          "type": "bytes32"
        },
        {
          "internalType": "uint64",
          "name": "subscriptionId",
          "type": "uint64"
        },
        {
          "internalType": "uint32",
          "name": "callbackGasLimit",
          "type": "uint32"
        },
        {
          "internalType": "string[]",
          "name": "_tokenURIs",
          "type": "string[]"
        }
      ],
      "stateMutability": "nonpayable",
      "type": "constructor"
    },
    {
      "inputs": [
        {
          "internalType": "address",
          "name": "have",
          "type": "address"
        },
        {
          "internalType": "address",
          "name": "want",
          "type": "address"
        }
      ],
      "name": "OnlyCoordinatorCanFulfill",
      "type": "error"
    },
    {
      "inputs": [],
      "name": "RandomIPFS__NotOwner",
      "type": "error"
    },
    {
      "inputs": [],
      "name": "RandomIPFS__notEnoughEth",
      "type": "error"
    },
    {
      "inputs": [],
      "name": "RandomIPFS__outOfBound",
      "type": "error"
    },
    {
      "inputs": [],
      "name": "RandomIPFS__withDrawUnsuccessfull",
      "type": "error"
    },
    {
      "anonymous": false,
      "inputs": [
        {
          "indexed": true,
          "internalType": "address",
          "name": "owner",
          "type": "address"
        },
        {
          "indexed": true,
          "internalType": "address",
          "name": "approved",
          "type": "address"
        },
        {
          "indexed": true,
          "internalType": "uint256",
          "name": "tokenId",
          "type": "uint256"
        }
      ],
      "name": "Approval",
      "type": "event"
    },
    {
      "anonymous": false,
      "inputs": [
        {
          "indexed": true,
          "internalType": "address",
          "name": "owner",
          "type": "address"
        },
        {
          "indexed": true,
          "internalType": "address",
          "name": "operator",
          "type": "address"
        },
        {
          "indexed": false,
          "internalType": "bool",
          "name": "approved",
          "type": "bool"
        }
      ],
      "name": "ApprovalForAll",
      "type": "event"
    },
    {
      "anonymous": false,
      "inputs": [
        {
          "indexed": false,
          "internalType": "enum RandomIPFS.Breed",
          "name": "",
          "type": "uint8"
        },
        {
          "indexed": false,
          "internalType": "address",
          "name": "",
          "type": "address"
        }
      ],
      "name": "NFTMinted",
      "type": "event"
    },
    {
      "anonymous": false,
      "inputs": [
        {
          "indexed": true,
          "internalType": "uint256",
          "name": "requestId",
          "type": "uint256"
        },
        {
          "indexed": false,
          "internalType": "address",
          "name": "",
          "type": "address"
        }
      ],
      "name": "NFTRequested",
      "type": "event"
    },
    {
      "anonymous": false,
      "inputs": [
        {
          "indexed": true,
          "internalType": "address",
          "name": "from",
          "type": "address"
        },
        {
          "indexed": true,
          "internalType": "address",
          "name": "to",
          "type": "address"
        },
        {
          "indexed": true,
          "internalType": "uint256",
          "name": "tokenId",
          "type": "uint256"
        }
      ],
      "name": "Transfer",
      "type": "event"
    },
    {
      "inputs": [
        {
          "internalType": "address",
          "name": "to",
          "type": "address"
        },
        {
          "internalType": "uint256",
          "name": "tokenId",
          "type": "uint256"
        }
      ],
      "name": "approve",
      "outputs": [],
      "stateMutability": "nonpayable",
      "type": "function"
    },
    {
      "inputs": [
        {
          "internalType": "address",
          "name": "owner",
          "type": "address"
        }
      ],
      "name": "balanceOf",
      "outputs": [
        {
          "internalType": "uint256",
          "name": "",
          "type": "uint256"
        }
      ],
      "stateMutability": "view",
      "type": "function"
    },
    {
      "inputs": [
        {
          "internalType": "uint256",
          "name": "tokenId",
          "type": "uint256"
        }
      ],
      "name": "getApproved",
      "outputs": [
        {
          "internalType": "address",
          "name": "",
          "type": "address"
        }
      ],
      "stateMutability": "view",
      "type": "function"
    },
    {
      "inputs": [
        {
          "internalType": "uint256",
          "name": "randomNum",
          "type": "uint256"
        }
      ],
      "name": "getBreedFromRandomNum",
      "outputs": [
        {
          "internalType": "enum RandomIPFS.Breed",
          "name": "",
          "type": "uint8"
        }
      ],
      "stateMutability": "pure",
      "type": "function"
    },
    {
      "inputs": [],
      "name": "getChanceArray",
      "outputs": [
        {
          "internalType": "uint256[3]",
          "name": "arr",
          "type": "uint256[3]"
        }
      ],
      "stateMutability": "pure",
      "type": "function"
    },
    {
      "inputs": [],
      "name": "getMintFee",
      "outputs": [
        {
          "internalType": "uint256",
          "name": "",
          "type": "uint256"
        }
      ],
      "stateMutability": "view",
      "type": "function"
    },
    {
      "inputs": [],
      "name": "i_mintFee",
      "outputs": [
        {
          "internalType": "uint256",
          "name": "",
          "type": "uint256"
        }
      ],
      "stateMutability": "view",
      "type": "function"
    },
    {
      "inputs": [],
      "name": "i_owner",
      "outputs": [
        {
          "internalType": "address",
          "name": "",
          "type": "address"
        }
      ],
      "stateMutability": "view",
      "type": "function"
    },
    {
      "inputs": [
        {
          "internalType": "address",
          "name": "owner",
          "type": "address"
        },
        {
          "internalType": "address",
          "name": "operator",
          "type": "address"
        }
      ],
      "name": "isApprovedForAll",
      "outputs": [
        {
          "internalType": "bool",
          "name": "",
          "type": "bool"
        }
      ],
      "stateMutability": "view",
      "type": "function"
    },
    {
      "inputs": [],
      "name": "name",
      "outputs": [
        {
          "internalType": "string",
          "name": "",
          "type": "string"
        }
      ],
      "stateMutability": "view",
      "type": "function"
    },
    {
      "inputs": [
        {
          "internalType": "uint256",
          "name": "tokenId",
          "type": "uint256"
        }
      ],
      "name": "ownerOf",
      "outputs": [
        {
          "internalType": "address",
          "name": "",
          "type": "address"
        }
      ],
      "stateMutability": "view",
      "type": "function"
    },
    {
      "inputs": [
        {
          "internalType": "uint256",
          "name": "requestId",
          "type": "uint256"
        },
        {
          "internalType": "uint256[]",
          "name": "randomWords",
          "type": "uint256[]"
        }
      ],
      "name": "rawFulfillRandomWords",
      "outputs": [],
      "stateMutability": "nonpayable",
      "type": "function"
    },
    {
      "inputs": [],
      "name": "requestNFT",
      "outputs": [
        {
          "internalType": "uint256",
          "name": "requestId",
          "type": "uint256"
        }
      ],
      "stateMutability": "payable",
      "type": "function"
    },
    {
      "inputs": [],
      "name": "s_tokenCounter",
      "outputs": [
        {
          "internalType": "uint256",
          "name": "",
          "type": "uint256"
        }
      ],
      "stateMutability": "view",
      "type": "function"
    },
    {
      "inputs": [
        {
          "internalType": "address",
          "name": "from",
          "type": "address"
        },
        {
          "internalType": "address",
          "name": "to",
          "type": "address"
        },
        {
          "internalType": "uint256",
          "name": "tokenId",
          "type": "uint256"
        }
      ],
      "name": "safeTransferFrom",
      "outputs": [],
      "stateMutability": "nonpayable",
      "type": "function"
    },
    {
      "inputs": [
        {
          "internalType": "address",
          "name": "from",
          "type": "address"
        },
        {
          "internalType": "address",
          "name": "to",
          "type": "address"
        },
        {
          "internalType": "uint256",
          "name": "tokenId",
          "type": "uint256"
        },
        {
          "internalType": "bytes",
          "name": "data",
          "type": "bytes"
        }
      ],
      "name": "safeTransferFrom",
      "outputs": [],
      "stateMutability": "nonpayable",
      "type": "function"
    },
    {
      "inputs": [
        {
          "internalType": "address",
          "name": "operator",
          "type": "address"
        },
        {
          "internalType": "bool",
          "name": "approved",
          "type": "bool"
        }
      ],
      "name": "setApprovalForAll",
      "outputs": [],
      "stateMutability": "nonpayable",
      "type": "function"
    },
    {
      "inputs": [
        {
          "internalType": "bytes4",
          "name": "interfaceId",
          "type": "bytes4"
        }
      ],
      "name": "supportsInterface",
      "outputs": [
        {
          "internalType": "bool",
          "name": "",
          "type": "bool"
        }
      ],
      "stateMutability": "view",
      "type": "function"
    },
    {
      "inputs": [],
      "name": "symbol",
      "outputs": [
        {
          "internalType": "string",
          "name": "",
          "type": "string"
        }
      ],
      "stateMutability": "view",
      "type": "function"
    },
    {
      "inputs": [
        {
          "internalType": "uint256",
          "name": "tokenId",
          "type": "uint256"
        }
      ],
      "name": "tokenURI",
      "outputs": [
        {
          "internalType": "string",
          "name": "",
          "type": "string"
        }
      ],
      "stateMutability": "view",
      "type": "function"
    },
    {
      "inputs": [
        {
          "internalType": "address",
          "name": "from",
          "type": "address"
        },
        {
          "internalType": "address",
          "name": "to",
          "type": "address"
        },
        {
          "internalType": "uint256",
          "name": "tokenId",
          "type": "uint256"
        }
      ],
      "name": "transferFrom",
      "outputs": [],
      "stateMutability": "nonpayable",
      "type": "function"
    },
    {
      "inputs": [],
      "name": "withDraw",
      "outputs": [],
      "stateMutability": "nonpayable",
      "type": "function"
    }
  ],
  "transactionHash": "0x07255ef8441e2b56323bd99629f5579c47df18c0142b72be4a32256a38f45028",
  "args": [
    "0x5FbDB2315678afecb367f032d93F642f64180aa3",
    "100000000000000000",
    "0xd89b2bf150e3b9e13446986e571fb9cab24b13cea0a43ea20a6049a85cc807cc",
    "1",
    "500000",
    [
      "ipfs://QmVEN1xuWj4YQ5JzJ1dtpJ1cB3qWpseqp3XjJvgFUdGAY3",
      "ipfs://QmU1YCRjgP2jGYTDo5aAPCeCWvRsiuaMtpTD9HpCDV6Vgx",
      "ipfs://QmS6usNU8uzUq1gTFA9Ub4XTstrvYpLQZGd2RAr9sJuY23"
    ]
  ],
  "numDeployments": 1,
  "solcInputHash": "c436e2075c18de848f33608eaa1db5b0",
  "bytecode": "0x61016060405260006009553480156200001757600080fd5b5060405162003ba838038062003ba883398181016040528101906200003d919062000762565b6040518060400160405280600a81526020017f52616e646f6d446f6773000000000000000000000000000000000000000000008152506040518060400160405280600381526020017f52494e0000000000000000000000000000000000000000000000000000000000815250878073ffffffffffffffffffffffffffffffffffffffff1660808173ffffffffffffffffffffffffffffffffffffffff1681525050508160009080519060200190620000f7929190620001e3565b50806001908051906020019062000110929190620001e3565b5050508460a081815250508573ffffffffffffffffffffffffffffffffffffffff1660c08173ffffffffffffffffffffffffffffffffffffffff16815250508360e081815250508267ffffffffffffffff166101008167ffffffffffffffff16815250508163ffffffff166101208163ffffffff16815250503373ffffffffffffffffffffffffffffffffffffffff166101408173ffffffffffffffffffffffffffffffffffffffff16815250508060079080519060200190620001d692919062000274565b5050505050505062000882565b828054620001f1906200084c565b90600052602060002090601f01602090048101928262000215576000855562000261565b82601f106200023057805160ff191683800117855562000261565b8280016001018555821562000261579182015b828111156200026057825182559160200191906001019062000243565b5b509050620002709190620002db565b5090565b828054828255906000526020600020908101928215620002c8579160200282015b82811115620002c7578251829080519060200190620002b6929190620001e3565b509160200191906001019062000295565b5b509050620002d79190620002fa565b5090565b5b80821115620002f6576000816000905550600101620002dc565b5090565b5b808211156200031e576000818162000314919062000322565b50600101620002fb565b5090565b50805462000330906200084c565b6000825580601f1062000344575062000365565b601f016020900490600052602060002090810190620003649190620002db565b5b50565b6000604051905090565b600080fd5b600080fd5b600073ffffffffffffffffffffffffffffffffffffffff82169050919050565b6000620003a9826200037c565b9050919050565b620003bb816200039c565b8114620003c757600080fd5b50565b600081519050620003db81620003b0565b92915050565b6000819050919050565b620003f681620003e1565b81146200040257600080fd5b50565b6000815190506200041681620003eb565b92915050565b6000819050919050565b62000431816200041c565b81146200043d57600080fd5b50565b600081519050620004518162000426565b92915050565b600067ffffffffffffffff82169050919050565b620004768162000457565b81146200048257600080fd5b50565b60008151905062000496816200046b565b92915050565b600063ffffffff82169050919050565b620004b7816200049c565b8114620004c357600080fd5b50565b600081519050620004d781620004ac565b92915050565b600080fd5b6000601f19601f8301169050919050565b7f4e487b7100000000000000000000000000000000000000000000000000000000600052604160045260246000fd5b6200052d82620004e2565b810181811067ffffffffffffffff821117156200054f576200054e620004f3565b5b80604052505050565b60006200056462000368565b905062000572828262000522565b919050565b600067ffffffffffffffff821115620005955762000594620004f3565b5b602082029050602081019050919050565b600080fd5b600080fd5b600067ffffffffffffffff821115620005ce57620005cd620004f3565b5b620005d982620004e2565b9050602081019050919050565b60005b8381101562000606578082015181840152602081019050620005e9565b8381111562000616576000848401525b50505050565b6000620006336200062d84620005b0565b62000558565b905082815260208101848484011115620006525762000651620005ab565b5b6200065f848285620005e6565b509392505050565b600082601f8301126200067f576200067e620004dd565b5b8151620006918482602086016200061c565b91505092915050565b6000620006b1620006ab8462000577565b62000558565b90508083825260208201905060208402830185811115620006d757620006d6620005a6565b5b835b818110156200072557805167ffffffffffffffff8111156200070057620006ff620004dd565b5b8086016200070f898262000667565b85526020850194505050602081019050620006d9565b5050509392505050565b600082601f830112620007475762000746620004dd565b5b8151620007598482602086016200069a565b91505092915050565b60008060008060008060c0878903121562000782576200078162000372565b5b60006200079289828a01620003ca565b9650506020620007a589828a0162000405565b9550506040620007b889828a0162000440565b9450506060620007cb89828a0162000485565b9350506080620007de89828a01620004c6565b92505060a087015167ffffffffffffffff81111562000802576200080162000377565b5b6200081089828a016200072f565b9150509295509295509295565b7f4e487b7100000000000000000000000000000000000000000000000000000000600052602260045260246000fd5b600060028204905060018216806200086557607f821691505b602082108114156200087c576200087b6200081d565b5b50919050565b60805160a05160c05160e0516101005161012051610140516132af620008f960003960008181610817015261113601526000610e5801526000610e3501526000610e1401526000610dd8015260008181610a0801528181610d560152610d7e015260008181610948015261099c01526132af6000f3fe6080604052600436106101355760003560e01c80636352211e116100ab57806395d89b411161006f57806395d89b411461041b578063a22cb46514610446578063b88d4fde1461046f578063c87b56dd14610498578063dba6335f146104d5578063e985e9c51461050057610135565b80636352211e1461031b57806370a082311461035857806373d9aa2b146103955780637a5caab3146103d25780637abd25d1146103fd57610135565b80630fdb1c10116100fd5780630fdb1c10146102335780631fe543e31461024a57806323895e791461027357806323b872dd1461029e57806342842e0e146102c75780635dacf5f4146102f057610135565b806301ffc9a71461013a57806306fdde0314610177578063081812fc146101a2578063095ea7b3146101df5780630b21a83b14610208575b600080fd5b34801561014657600080fd5b50610161600480360381019061015c9190611fec565b61053d565b60405161016e9190612034565b60405180910390f35b34801561018357600080fd5b5061018c61061f565b60405161019991906120e8565b60405180910390f35b3480156101ae57600080fd5b506101c960048036038101906101c49190612140565b6106b1565b6040516101d691906121ae565b60405180910390f35b3480156101eb57600080fd5b50610206600480360381019061020191906121f5565b6106f7565b005b34801561021457600080fd5b5061021d61080f565b60405161022a9190612244565b60405180910390f35b34801561023f57600080fd5b50610248610815565b005b34801561025657600080fd5b50610271600480360381019061026c91906123a7565b610946565b005b34801561027f57600080fd5b50610288610a06565b6040516102959190612244565b60405180910390f35b3480156102aa57600080fd5b506102c560048036038101906102c09190612403565b610a2a565b005b3480156102d357600080fd5b506102ee60048036038101906102e99190612403565b610a8a565b005b3480156102fc57600080fd5b50610305610aaa565b6040516103129190612501565b60405180910390f35b34801561032757600080fd5b50610342600480360381019061033d9190612140565b610b12565b60405161034f91906121ae565b60405180910390f35b34801561036457600080fd5b5061037f600480360381019061037a919061251c565b610bc4565b60405161038c9190612244565b60405180910390f35b3480156103a157600080fd5b506103bc60048036038101906103b79190612140565b610c7c565b6040516103c991906125c0565b60405180910390f35b3480156103de57600080fd5b506103e7610d52565b6040516103f49190612244565b60405180910390f35b610405610d7a565b6040516104129190612244565b60405180910390f35b34801561042757600080fd5b50610430610f7a565b60405161043d91906120e8565b60405180910390f35b34801561045257600080fd5b5061046d60048036038101906104689190612607565b61100c565b005b34801561047b57600080fd5b50610496600480360381019061049191906126fc565b611022565b005b3480156104a457600080fd5b506104bf60048036038101906104ba9190612140565b611084565b6040516104cc91906120e8565b60405180910390f35b3480156104e157600080fd5b506104ea611134565b6040516104f791906121ae565b60405180910390f35b34801561050c57600080fd5b506105276004803603810190610522919061277f565b611158565b6040516105349190612034565b60405180910390f35b60007f80ac58cd000000000000000000000000000000000000000000000000000000007bffffffffffffffffffffffffffffffffffffffffffffffffffffffff1916827bffffffffffffffffffffffffffffffffffffffffffffffffffffffff1916148061060857507f5b5e139f000000000000000000000000000000000000000000000000000000007bffffffffffffffffffffffffffffffffffffffffffffffffffffffff1916827bffffffffffffffffffffffffffffffffffffffffffffffffffffffff1916145b806106185750610617826111ec565b5b9050919050565b60606000805461062e906127ee565b80601f016020809104026020016040519081016040528092919081815260200182805461065a906127ee565b80156106a75780601f1061067c576101008083540402835291602001916106a7565b820191906000526020600020905b81548152906001019060200180831161068a57829003601f168201915b5050505050905090565b60006106bc82611256565b6004600083815260200190815260200160002060009054906101000a900473ffffffffffffffffffffffffffffffffffffffff169050919050565b600061070282610b12565b90508073ffffffffffffffffffffffffffffffffffffffff168373ffffffffffffffffffffffffffffffffffffffff161415610773576040517f08c379a000000000000000000000000000000000000000000000000000000000815260040161076a90612892565b60405180910390fd5b8073ffffffffffffffffffffffffffffffffffffffff166107926112a1565b73ffffffffffffffffffffffffffffffffffffffff1614806107c157506107c0816107bb6112a1565b611158565b5b610800576040517f08c379a00000000000000000000000000000000000000000000000000000000081526004016107f790612924565b60405180910390fd5b61080a83836112a9565b505050565b60095481565b7f000000000000000000000000000000000000000000000000000000000000000073ffffffffffffffffffffffffffffffffffffffff163373ffffffffffffffffffffffffffffffffffffffff161461089a576040517fe4dd1c3800000000000000000000000000000000000000000000000000000000815260040160405180910390fd5b600047905060003373ffffffffffffffffffffffffffffffffffffffff16826040516108c590612975565b60006040518083038185875af1925050503d8060008114610902576040519150601f19603f3d011682016040523d82523d6000602084013e610907565b606091505b5050905080610942576040517f9137abd300000000000000000000000000000000000000000000000000000000815260040160405180910390fd5b5050565b7f000000000000000000000000000000000000000000000000000000000000000073ffffffffffffffffffffffffffffffffffffffff163373ffffffffffffffffffffffffffffffffffffffff16146109f857337f00000000000000000000000000000000000000000000000000000000000000006040517f1cf993f40000000000000000000000000000000000000000000000000000000081526004016109ef92919061298a565b60405180910390fd5b610a028282611362565b5050565b7f000000000000000000000000000000000000000000000000000000000000000081565b610a3b610a356112a1565b826114ff565b610a7a576040517f08c379a0000000000000000000000000000000000000000000000000000000008152600401610a7190612a25565b60405180910390fd5b610a85838383611594565b505050565b610aa583838360405180602001604052806000815250611022565b505050565b610ab2611ebb565b600a81600060038110610ac857610ac7612a45565b5b602002018181525050601e81600160038110610ae757610ae6612a45565b5b602002018181525050606481600260038110610b0657610b05612a45565b5b60200201818152505090565b6000806002600084815260200190815260200160002060009054906101000a900473ffffffffffffffffffffffffffffffffffffffff169050600073ffffffffffffffffffffffffffffffffffffffff168173ffffffffffffffffffffffffffffffffffffffff161415610bbb576040517f08c379a0000000000000000000000000000000000000000000000000000000008152600401610bb290612ac0565b60405180910390fd5b80915050919050565b60008073ffffffffffffffffffffffffffffffffffffffff168273ffffffffffffffffffffffffffffffffffffffff161415610c35576040517f08c379a0000000000000000000000000000000000000000000000000000000008152600401610c2c90612b52565b60405180910390fd5b600360008373ffffffffffffffffffffffffffffffffffffffff1673ffffffffffffffffffffffffffffffffffffffff168152602001908152602001600020549050919050565b600080600090506000610c8d610aaa565b905060005b6003811015610d1a578285118015610cc05750818160038110610cb857610cb7612a45565b5b602002015185105b15610ce257806002811115610cd857610cd7612549565b5b9350505050610d4d565b818160038110610cf557610cf4612a45565b5b602002015183610d059190612ba1565b92508080610d1290612bf7565b915050610c92565b506040517f21aef1e100000000000000000000000000000000000000000000000000000000815260040160405180910390fd5b919050565b60007f0000000000000000000000000000000000000000000000000000000000000000905090565b60007f0000000000000000000000000000000000000000000000000000000000000000341015610dd6576040517fe4d54b3f00000000000000000000000000000000000000000000000000000000815260040160405180910390fd5b7f000000000000000000000000000000000000000000000000000000000000000073ffffffffffffffffffffffffffffffffffffffff16635d3b1d307f00000000000000000000000000000000000000000000000000000000000000007f000000000000000000000000000000000000000000000000000000000000000060037f000000000000000000000000000000000000000000000000000000000000000060016040518663ffffffff1660e01b8152600401610e99959493929190612cb8565b602060405180830381600087803b158015610eb357600080fd5b505af1158015610ec7573d6000803e3d6000fd5b505050506040513d601f19601f82011682018060405250810190610eeb9190612d20565b9050336008600083815260200190815260200160002060006101000a81548173ffffffffffffffffffffffffffffffffffffffff021916908373ffffffffffffffffffffffffffffffffffffffff160217905550807f4e1c2f1eae56e29ec039a2b882eec626e6c420ed5a5b93a203c8b8b695e911b133604051610f6f91906121ae565b60405180910390a290565b606060018054610f89906127ee565b80601f0160208091040260200160405190810160405280929190818152602001828054610fb5906127ee565b80156110025780601f10610fd757610100808354040283529160200191611002565b820191906000526020600020905b815481529060010190602001808311610fe557829003601f168201915b5050505050905090565b61101e6110176112a1565b83836117fb565b5050565b61103361102d6112a1565b836114ff565b611072576040517f08c379a000000000000000000000000000000000000000000000000000000000815260040161106990612a25565b60405180910390fd5b61107e84848484611968565b50505050565b60606007828154811061109a57611099612a45565b5b9060005260206000200180546110af906127ee565b80601f01602080910402602001604051908101604052809291908181526020018280546110db906127ee565b80156111285780601f106110fd57610100808354040283529160200191611128565b820191906000526020600020905b81548152906001019060200180831161110b57829003601f168201915b50505050509050919050565b7f000000000000000000000000000000000000000000000000000000000000000081565b6000600560008473ffffffffffffffffffffffffffffffffffffffff1673ffffffffffffffffffffffffffffffffffffffff16815260200190815260200160002060008373ffffffffffffffffffffffffffffffffffffffff1673ffffffffffffffffffffffffffffffffffffffff16815260200190815260200160002060009054906101000a900460ff16905092915050565b60007f01ffc9a7000000000000000000000000000000000000000000000000000000007bffffffffffffffffffffffffffffffffffffffffffffffffffffffff1916827bffffffffffffffffffffffffffffffffffffffffffffffffffffffff1916149050919050565b61125f816119c4565b61129e576040517f08c379a000000000000000000000000000000000000000000000000000000000815260040161129590612ac0565b60405180910390fd5b50565b600033905090565b816004600083815260200190815260200160002060006101000a81548173ffffffffffffffffffffffffffffffffffffffff021916908373ffffffffffffffffffffffffffffffffffffffff160217905550808273ffffffffffffffffffffffffffffffffffffffff1661131c83610b12565b73ffffffffffffffffffffffffffffffffffffffff167f8c5be1e5ebec7d5bd14f71427d1e84f3dd0314c0f7b2291e5b200ac8c7c3b92560405160405180910390a45050565b60006008600084815260200190815260200160002060009054906101000a900473ffffffffffffffffffffffffffffffffffffffff1690506000600954905060006064846000815181106113b9576113b8612a45565b5b60200260200101516113cb9190612d7c565b905060006113d882610c7c565b90506113e48484611a30565b6114a68360078360028111156113fd576113fc612549565b5b8154811061140e5761140d612a45565b5b906000526020600020018054611423906127ee565b80601f016020809104026020016040519081016040528092919081815260200182805461144f906127ee565b801561149c5780601f106114715761010080835404028352916020019161149c565b820191906000526020600020905b81548152906001019060200180831161147f57829003601f168201915b5050505050611a4e565b600960008154809291906114b990612bf7565b91905055507fab79897476febbd649710b1bd1dc3e93a316d3dee65f65b022ab89a4b7e206b581856040516114ef929190612dad565b60405180910390a1505050505050565b60008061150b83610b12565b90508073ffffffffffffffffffffffffffffffffffffffff168473ffffffffffffffffffffffffffffffffffffffff16148061154d575061154c8185611158565b5b8061158b57508373ffffffffffffffffffffffffffffffffffffffff16611573846106b1565b73ffffffffffffffffffffffffffffffffffffffff16145b91505092915050565b8273ffffffffffffffffffffffffffffffffffffffff166115b482610b12565b73ffffffffffffffffffffffffffffffffffffffff161461160a576040517f08c379a000000000000000000000000000000000000000000000000000000000815260040161160190612e48565b60405180910390fd5b600073ffffffffffffffffffffffffffffffffffffffff168273ffffffffffffffffffffffffffffffffffffffff16141561167a576040517f08c379a000000000000000000000000000000000000000000000000000000000815260040161167190612eda565b60405180910390fd5b611685838383611ac2565b6116906000826112a9565b6001600360008573ffffffffffffffffffffffffffffffffffffffff1673ffffffffffffffffffffffffffffffffffffffff16815260200190815260200160002060008282546116e09190612efa565b925050819055506001600360008473ffffffffffffffffffffffffffffffffffffffff1673ffffffffffffffffffffffffffffffffffffffff16815260200190815260200160002060008282546117379190612ba1565b92505081905550816002600083815260200190815260200160002060006101000a81548173ffffffffffffffffffffffffffffffffffffffff021916908373ffffffffffffffffffffffffffffffffffffffff160217905550808273ffffffffffffffffffffffffffffffffffffffff168473ffffffffffffffffffffffffffffffffffffffff167fddf252ad1be2c89b69c2b068fc378daa952ba7f163c4a11628f55a4df523b3ef60405160405180910390a46117f6838383611ac7565b505050565b8173ffffffffffffffffffffffffffffffffffffffff168373ffffffffffffffffffffffffffffffffffffffff16141561186a576040517f08c379a000000000000000000000000000000000000000000000000000000000815260040161186190612f7a565b60405180910390fd5b80600560008573ffffffffffffffffffffffffffffffffffffffff1673ffffffffffffffffffffffffffffffffffffffff16815260200190815260200160002060008473ffffffffffffffffffffffffffffffffffffffff1673ffffffffffffffffffffffffffffffffffffffff16815260200190815260200160002060006101000a81548160ff0219169083151502179055508173ffffffffffffffffffffffffffffffffffffffff168373ffffffffffffffffffffffffffffffffffffffff167f17307eab39ab6107e8899845ad3d59bd9653f200f220920489ca2b5937696c318360405161195b9190612034565b60405180910390a3505050565b611973848484611594565b61197f84848484611acc565b6119be576040517f08c379a00000000000000000000000000000000000000000000000000000000081526004016119b59061300c565b60405180910390fd5b50505050565b60008073ffffffffffffffffffffffffffffffffffffffff166002600084815260200190815260200160002060009054906101000a900473ffffffffffffffffffffffffffffffffffffffff1673ffffffffffffffffffffffffffffffffffffffff1614159050919050565b611a4a828260405180602001604052806000815250611c63565b5050565b611a57826119c4565b611a96576040517f08c379a0000000000000000000000000000000000000000000000000000000008152600401611a8d9061309e565b60405180910390fd5b80600660008481526020019081526020016000209080519060200190611abd929190611edd565b505050565b505050565b505050565b6000611aed8473ffffffffffffffffffffffffffffffffffffffff16611cbe565b15611c56578373ffffffffffffffffffffffffffffffffffffffff1663150b7a02611b166112a1565b8786866040518563ffffffff1660e01b8152600401611b389493929190613113565b602060405180830381600087803b158015611b5257600080fd5b505af1925050508015611b8357506040513d601f19601f82011682018060405250810190611b809190613174565b60015b611c06573d8060008114611bb3576040519150601f19603f3d011682016040523d82523d6000602084013e611bb8565b606091505b50600081511415611bfe576040517f08c379a0000000000000000000000000000000000000000000000000000000008152600401611bf59061300c565b60405180910390fd5b805181602001fd5b63150b7a0260e01b7bffffffffffffffffffffffffffffffffffffffffffffffffffffffff1916817bffffffffffffffffffffffffffffffffffffffffffffffffffffffff191614915050611c5b565b600190505b949350505050565b611c6d8383611ce1565b611c7a6000848484611acc565b611cb9576040517f08c379a0000000000000000000000000000000000000000000000000000000008152600401611cb09061300c565b60405180910390fd5b505050565b6000808273ffffffffffffffffffffffffffffffffffffffff163b119050919050565b600073ffffffffffffffffffffffffffffffffffffffff168273ffffffffffffffffffffffffffffffffffffffff161415611d51576040517f08c379a0000000000000000000000000000000000000000000000000000000008152600401611d48906131ed565b60405180910390fd5b611d5a816119c4565b15611d9a576040517f08c379a0000000000000000000000000000000000000000000000000000000008152600401611d9190613259565b60405180910390fd5b611da660008383611ac2565b6001600360008473ffffffffffffffffffffffffffffffffffffffff1673ffffffffffffffffffffffffffffffffffffffff1681526020019081526020016000206000828254611df69190612ba1565b92505081905550816002600083815260200190815260200160002060006101000a81548173ffffffffffffffffffffffffffffffffffffffff021916908373ffffffffffffffffffffffffffffffffffffffff160217905550808273ffffffffffffffffffffffffffffffffffffffff16600073ffffffffffffffffffffffffffffffffffffffff167fddf252ad1be2c89b69c2b068fc378daa952ba7f163c4a11628f55a4df523b3ef60405160405180910390a4611eb760008383611ac7565b5050565b6040518060600160405280600390602082028036833780820191505090505090565b828054611ee9906127ee565b90600052602060002090601f016020900481019282611f0b5760008555611f52565b82601f10611f2457805160ff1916838001178555611f52565b82800160010185558215611f52579182015b82811115611f51578251825591602001919060010190611f36565b5b509050611f5f9190611f63565b5090565b5b80821115611f7c576000816000905550600101611f64565b5090565b6000604051905090565b600080fd5b600080fd5b60007fffffffff0000000000000000000000000000000000000000000000000000000082169050919050565b611fc981611f94565b8114611fd457600080fd5b50565b600081359050611fe681611fc0565b92915050565b60006020828403121561200257612001611f8a565b5b600061201084828501611fd7565b91505092915050565b60008115159050919050565b61202e81612019565b82525050565b60006020820190506120496000830184612025565b92915050565b600081519050919050565b600082825260208201905092915050565b60005b8381101561208957808201518184015260208101905061206e565b83811115612098576000848401525b50505050565b6000601f19601f8301169050919050565b60006120ba8261204f565b6120c4818561205a565b93506120d481856020860161206b565b6120dd8161209e565b840191505092915050565b6000602082019050818103600083015261210281846120af565b905092915050565b6000819050919050565b61211d8161210a565b811461212857600080fd5b50565b60008135905061213a81612114565b92915050565b60006020828403121561215657612155611f8a565b5b60006121648482850161212b565b91505092915050565b600073ffffffffffffffffffffffffffffffffffffffff82169050919050565b60006121988261216d565b9050919050565b6121a88161218d565b82525050565b60006020820190506121c3600083018461219f565b92915050565b6121d28161218d565b81146121dd57600080fd5b50565b6000813590506121ef816121c9565b92915050565b6000806040838503121561220c5761220b611f8a565b5b600061221a858286016121e0565b925050602061222b8582860161212b565b9150509250929050565b61223e8161210a565b82525050565b60006020820190506122596000830184612235565b92915050565b600080fd5b7f4e487b7100000000000000000000000000000000000000000000000000000000600052604160045260246000fd5b61229c8261209e565b810181811067ffffffffffffffff821117156122bb576122ba612264565b5b80604052505050565b60006122ce611f80565b90506122da8282612293565b919050565b600067ffffffffffffffff8211156122fa576122f9612264565b5b602082029050602081019050919050565b600080fd5b600061232361231e846122df565b6122c4565b905080838252602082019050602084028301858111156123465761234561230b565b5b835b8181101561236f578061235b888261212b565b845260208401935050602081019050612348565b5050509392505050565b600082601f83011261238e5761238d61225f565b5b813561239e848260208601612310565b91505092915050565b600080604083850312156123be576123bd611f8a565b5b60006123cc8582860161212b565b925050602083013567ffffffffffffffff8111156123ed576123ec611f8f565b5b6123f985828601612379565b9150509250929050565b60008060006060848603121561241c5761241b611f8a565b5b600061242a868287016121e0565b935050602061243b868287016121e0565b925050604061244c8682870161212b565b9150509250925092565b600060039050919050565b600081905092915050565b6000819050919050565b61247f8161210a565b82525050565b60006124918383612476565b60208301905092915050565b6000602082019050919050565b6124b381612456565b6124bd8184612461565b92506124c88261246c565b8060005b838110156124f95781516124e08782612485565b96506124eb8361249d565b9250506001810190506124cc565b505050505050565b600060608201905061251660008301846124aa565b92915050565b60006020828403121561253257612531611f8a565b5b6000612540848285016121e0565b91505092915050565b7f4e487b7100000000000000000000000000000000000000000000000000000000600052602160045260246000fd5b6003811061258957612588612549565b5b50565b600081905061259a82612578565b919050565b60006125aa8261258c565b9050919050565b6125ba8161259f565b82525050565b60006020820190506125d560008301846125b1565b92915050565b6125e481612019565b81146125ef57600080fd5b50565b600081359050612601816125db565b92915050565b6000806040838503121561261e5761261d611f8a565b5b600061262c858286016121e0565b925050602061263d858286016125f2565b9150509250929050565b600080fd5b600067ffffffffffffffff82111561266757612666612264565b5b6126708261209e565b9050602081019050919050565b82818337600083830152505050565b600061269f61269a8461264c565b6122c4565b9050828152602081018484840111156126bb576126ba612647565b5b6126c684828561267d565b509392505050565b600082601f8301126126e3576126e261225f565b5b81356126f384826020860161268c565b91505092915050565b6000806000806080858703121561271657612715611f8a565b5b6000612724878288016121e0565b9450506020612735878288016121e0565b93505060406127468782880161212b565b925050606085013567ffffffffffffffff81111561276757612766611f8f565b5b612773878288016126ce565b91505092959194509250565b6000806040838503121561279657612795611f8a565b5b60006127a4858286016121e0565b92505060206127b5858286016121e0565b9150509250929050565b7f4e487b7100000000000000000000000000000000000000000000000000000000600052602260045260246000fd5b6000600282049050600182168061280657607f821691505b6020821081141561281a576128196127bf565b5b50919050565b7f4552433732313a20617070726f76616c20746f2063757272656e74206f776e6560008201527f7200000000000000000000000000000000000000000000000000000000000000602082015250565b600061287c60218361205a565b915061288782612820565b604082019050919050565b600060208201905081810360008301526128ab8161286f565b9050919050565b7f4552433732313a20617070726f76652063616c6c6572206973206e6f7420746f60008201527f6b656e206f776e6572206e6f7220617070726f76656420666f7220616c6c0000602082015250565b600061290e603e8361205a565b9150612919826128b2565b604082019050919050565b6000602082019050818103600083015261293d81612901565b9050919050565b600081905092915050565b50565b600061295f600083612944565b915061296a8261294f565b600082019050919050565b600061298082612952565b9150819050919050565b600060408201905061299f600083018561219f565b6129ac602083018461219f565b9392505050565b7f4552433732313a2063616c6c6572206973206e6f7420746f6b656e206f776e6560008201527f72206e6f7220617070726f766564000000000000000000000000000000000000602082015250565b6000612a0f602e8361205a565b9150612a1a826129b3565b604082019050919050565b60006020820190508181036000830152612a3e81612a02565b9050919050565b7f4e487b7100000000000000000000000000000000000000000000000000000000600052603260045260246000fd5b7f4552433732313a20696e76616c696420746f6b656e2049440000000000000000600082015250565b6000612aaa60188361205a565b9150612ab582612a74565b602082019050919050565b60006020820190508181036000830152612ad981612a9d565b9050919050565b7f4552433732313a2061646472657373207a65726f206973206e6f74206120766160008201527f6c6964206f776e65720000000000000000000000000000000000000000000000602082015250565b6000612b3c60298361205a565b9150612b4782612ae0565b604082019050919050565b60006020820190508181036000830152612b6b81612b2f565b9050919050565b7f4e487b7100000000000000000000000000000000000000000000000000000000600052601160045260246000fd5b6000612bac8261210a565b9150612bb78361210a565b9250827fffffffffffffffffffffffffffffffffffffffffffffffffffffffffffffffff03821115612bec57612beb612b72565b5b828201905092915050565b6000612c028261210a565b91507fffffffffffffffffffffffffffffffffffffffffffffffffffffffffffffffff821415612c3557612c34612b72565b5b600182019050919050565b6000819050919050565b612c5381612c40565b82525050565b600067ffffffffffffffff82169050919050565b612c7681612c59565b82525050565b600061ffff82169050919050565b612c9381612c7c565b82525050565b600063ffffffff82169050919050565b612cb281612c99565b82525050565b600060a082019050612ccd6000830188612c4a565b612cda6020830187612c6d565b612ce76040830186612c8a565b612cf46060830185612ca9565b612d016080830184612ca9565b9695505050505050565b600081519050612d1a81612114565b92915050565b600060208284031215612d3657612d35611f8a565b5b6000612d4484828501612d0b565b91505092915050565b7f4e487b7100000000000000000000000000000000000000000000000000000000600052601260045260246000fd5b6000612d878261210a565b9150612d928361210a565b925082612da257612da1612d4d565b5b828206905092915050565b6000604082019050612dc260008301856125b1565b612dcf602083018461219f565b9392505050565b7f4552433732313a207472616e736665722066726f6d20696e636f72726563742060008201527f6f776e6572000000000000000000000000000000000000000000000000000000602082015250565b6000612e3260258361205a565b9150612e3d82612dd6565b604082019050919050565b60006020820190508181036000830152612e6181612e25565b9050919050565b7f4552433732313a207472616e7366657220746f20746865207a65726f2061646460008201527f7265737300000000000000000000000000000000000000000000000000000000602082015250565b6000612ec460248361205a565b9150612ecf82612e68565b604082019050919050565b60006020820190508181036000830152612ef381612eb7565b9050919050565b6000612f058261210a565b9150612f108361210a565b925082821015612f2357612f22612b72565b5b828203905092915050565b7f4552433732313a20617070726f766520746f2063616c6c657200000000000000600082015250565b6000612f6460198361205a565b9150612f6f82612f2e565b602082019050919050565b60006020820190508181036000830152612f9381612f57565b9050919050565b7f4552433732313a207472616e7366657220746f206e6f6e20455243373231526560008201527f63656976657220696d706c656d656e7465720000000000000000000000000000602082015250565b6000612ff660328361205a565b915061300182612f9a565b604082019050919050565b6000602082019050818103600083015261302581612fe9565b9050919050565b7f45524337323155524953746f726167653a2055524920736574206f66206e6f6e60008201527f6578697374656e7420746f6b656e000000000000000000000000000000000000602082015250565b6000613088602e8361205a565b91506130938261302c565b604082019050919050565b600060208201905081810360008301526130b78161307b565b9050919050565b600081519050919050565b600082825260208201905092915050565b60006130e5826130be565b6130ef81856130c9565b93506130ff81856020860161206b565b6131088161209e565b840191505092915050565b6000608082019050613128600083018761219f565b613135602083018661219f565b6131426040830185612235565b818103606083015261315481846130da565b905095945050505050565b60008151905061316e81611fc0565b92915050565b60006020828403121561318a57613189611f8a565b5b60006131988482850161315f565b91505092915050565b7f4552433732313a206d696e7420746f20746865207a65726f2061646472657373600082015250565b60006131d760208361205a565b91506131e2826131a1565b602082019050919050565b60006020820190508181036000830152613206816131ca565b9050919050565b7f4552433732313a20746f6b656e20616c7265616479206d696e74656400000000600082015250565b6000613243601c8361205a565b915061324e8261320d565b602082019050919050565b6000602082019050818103600083015261327281613236565b905091905056fea264697066735822122082622f1bd048a68cdfffd427c6f2cf371855d14fe4050a4ab27bb883ca30e37164736f6c63430008090033",
  "devdoc": {
    "kind": "dev",
    "methods": {
      "approve(address,uint256)": {
        "details": "See {IERC721-approve}."
      },
      "balanceOf(address)": {
        "details": "See {IERC721-balanceOf}."
      },
      "getApproved(uint256)": {
        "details": "See {IERC721-getApproved}."
      },
      "isApprovedForAll(address,address)": {
        "details": "See {IERC721-isApprovedForAll}."
      },
      "name()": {
        "details": "See {IERC721Metadata-name}."
      },
      "ownerOf(uint256)": {
        "details": "See {IERC721-ownerOf}."
      },
      "safeTransferFrom(address,address,uint256)": {
        "details": "See {IERC721-safeTransferFrom}."
      },
      "safeTransferFrom(address,address,uint256,bytes)": {
        "details": "See {IERC721-safeTransferFrom}."
      },
      "setApprovalForAll(address,bool)": {
        "details": "See {IERC721-setApprovalForAll}."
      },
      "supportsInterface(bytes4)": {
        "details": "See {IERC165-supportsInterface}."
      },
      "symbol()": {
        "details": "See {IERC721Metadata-symbol}."
      },
      "tokenURI(uint256)": {
        "details": "See {IERC721Metadata-tokenURI}."
      },
      "transferFrom(address,address,uint256)": {
        "details": "See {IERC721-transferFrom}."
      }
    },
    "version": 1
  },
  "userdoc": {
    "kind": "user",
    "methods": {
      "requestNFT()": {
        "notice": "this function will request for a random number, whenever soemone submit a mint request"
      }
    },
    "version": 1
  },
  "storageLayout": {
    "storage": [
      {
        "astId": 179,
        "contract": "contracts/RandomIPFSNFT.sol:RandomIPFS",
        "label": "_name",
        "offset": 0,
        "slot": "0",
        "type": "t_string_storage"
      },
      {
        "astId": 181,
        "contract": "contracts/RandomIPFSNFT.sol:RandomIPFS",
        "label": "_symbol",
        "offset": 0,
        "slot": "1",
        "type": "t_string_storage"
      },
      {
        "astId": 185,
        "contract": "contracts/RandomIPFSNFT.sol:RandomIPFS",
        "label": "_owners",
        "offset": 0,
        "slot": "2",
        "type": "t_mapping(t_uint256,t_address)"
      },
      {
        "astId": 189,
        "contract": "contracts/RandomIPFSNFT.sol:RandomIPFS",
        "label": "_balances",
        "offset": 0,
        "slot": "3",
        "type": "t_mapping(t_address,t_uint256)"
      },
      {
        "astId": 193,
        "contract": "contracts/RandomIPFSNFT.sol:RandomIPFS",
        "label": "_tokenApprovals",
        "offset": 0,
        "slot": "4",
        "type": "t_mapping(t_uint256,t_address)"
      },
      {
        "astId": 199,
        "contract": "contracts/RandomIPFSNFT.sol:RandomIPFS",
        "label": "_operatorApprovals",
        "offset": 0,
        "slot": "5",
        "type": "t_mapping(t_address,t_mapping(t_address,t_bool))"
      },
      {
        "astId": 1167,
        "contract": "contracts/RandomIPFSNFT.sol:RandomIPFS",
        "label": "_tokenURIs",
        "offset": 0,
        "slot": "6",
        "type": "t_mapping(t_uint256,t_string_storage)"
      },
      {
        "astId": 1909,
        "contract": "contracts/RandomIPFSNFT.sol:RandomIPFS",
        "label": "tokenURIs",
        "offset": 0,
        "slot": "7",
        "type": "t_array(t_string_storage)dyn_storage"
      },
      {
        "astId": 1932,
        "contract": "contracts/RandomIPFSNFT.sol:RandomIPFS",
        "label": "requestIdToAddress",
        "offset": 0,
        "slot": "8",
        "type": "t_mapping(t_uint256,t_address)"
      },
      {
        "astId": 1935,
        "contract": "contracts/RandomIPFSNFT.sol:RandomIPFS",
        "label": "s_tokenCounter",
        "offset": 0,
        "slot": "9",
        "type": "t_uint256"
      }
    ],
    "types": {
      "t_address": {
        "encoding": "inplace",
        "label": "address",
        "numberOfBytes": "20"
      },
      "t_array(t_string_storage)dyn_storage": {
        "base": "t_string_storage",
        "encoding": "dynamic_array",
        "label": "string[]",
        "numberOfBytes": "32"
      },
      "t_bool": {
        "encoding": "inplace",
        "label": "bool",
        "numberOfBytes": "1"
      },
      "t_mapping(t_address,t_bool)": {
        "encoding": "mapping",
        "key": "t_address",
        "label": "mapping(address => bool)",
        "numberOfBytes": "32",
        "value": "t_bool"
      },
      "t_mapping(t_address,t_mapping(t_address,t_bool))": {
        "encoding": "mapping",
        "key": "t_address",
        "label": "mapping(address => mapping(address => bool))",
        "numberOfBytes": "32",
        "value": "t_mapping(t_address,t_bool)"
      },
      "t_mapping(t_address,t_uint256)": {
        "encoding": "mapping",
        "key": "t_address",
        "label": "mapping(address => uint256)",
        "numberOfBytes": "32",
        "value": "t_uint256"
      },
      "t_mapping(t_uint256,t_address)": {
        "encoding": "mapping",
        "key": "t_uint256",
        "label": "mapping(uint256 => address)",
        "numberOfBytes": "32",
        "value": "t_address"
      },
      "t_mapping(t_uint256,t_string_storage)": {
        "encoding": "mapping",
        "key": "t_uint256",
        "label": "mapping(uint256 => string)",
        "numberOfBytes": "32",
        "value": "t_string_storage"
      },
      "t_string_storage": {
        "encoding": "bytes",
        "label": "string",
        "numberOfBytes": "32"
      },
      "t_uint256": {
        "encoding": "inplace",
        "label": "uint256",
        "numberOfBytes": "32"
      }
    }
  }
}