{
  "address": "0x9fE46736679d2D9a65F0992F2272dE9f3c7fa6e0",
  "abi": [
    {
      "inputs": [],
      "stateMutability": "nonpayable",
      "type": "constructor"
    },
    {
      "anonymous": false,
      "inputs": [
        {
          "indexed": true,
          "internalType": "address",
          "name": "owner",
          "type": "address"
        },
        {
          "indexed": true,
          "internalType": "address",
          "name": "approved",
          "type": "address"
        },
        {
          "indexed": true,
          "internalType": "uint256",
          "name": "tokenId",
          "type": "uint256"
        }
      ],
      "name": "Approval",
      "type": "event"
    },
    {
      "anonymous": false,
      "inputs": [
        {
          "indexed": true,
          "internalType": "address",
          "name": "owner",
          "type": "address"
        },
        {
          "indexed": true,
          "internalType": "address",
          "name": "operator",
          "type": "address"
        },
        {
          "indexed": false,
          "internalType": "bool",
          "name": "approved",
          "type": "bool"
        }
      ],
      "name": "ApprovalForAll",
      "type": "event"
    },
    {
      "anonymous": false,
      "inputs": [
        {
          "indexed": true,
          "internalType": "address",
          "name": "from",
          "type": "address"
        },
        {
          "indexed": true,
          "internalType": "address",
          "name": "to",
          "type": "address"
        },
        {
          "indexed": true,
          "internalType": "uint256",
          "name": "tokenId",
          "type": "uint256"
        }
      ],
      "name": "Transfer",
      "type": "event"
    },
    {
      "inputs": [],
      "name": "TOKEN_URI",
      "outputs": [
        {
          "internalType": "string",
          "name": "",
          "type": "string"
        }
      ],
      "stateMutability": "view",
      "type": "function"
    },
    {
      "inputs": [
        {
          "internalType": "address",
          "name": "to",
          "type": "address"
        },
        {
          "internalType": "uint256",
          "name": "tokenId",
          "type": "uint256"
        }
      ],
      "name": "approve",
      "outputs": [],
      "stateMutability": "nonpayable",
      "type": "function"
    },
    {
      "inputs": [
        {
          "internalType": "address",
          "name": "owner",
          "type": "address"
        }
      ],
      "name": "balanceOf",
      "outputs": [
        {
          "internalType": "uint256",
          "name": "",
          "type": "uint256"
        }
      ],
      "stateMutability": "view",
      "type": "function"
    },
    {
      "inputs": [
        {
          "internalType": "uint256",
          "name": "tokenId",
          "type": "uint256"
        }
      ],
      "name": "getApproved",
      "outputs": [
        {
          "internalType": "address",
          "name": "",
          "type": "address"
        }
      ],
      "stateMutability": "view",
      "type": "function"
    },
    {
      "inputs": [],
      "name": "getTokenCount",
      "outputs": [
        {
          "internalType": "uint256",
          "name": "",
          "type": "uint256"
        }
      ],
      "stateMutability": "view",
      "type": "function"
    },
    {
      "inputs": [
        {
          "internalType": "address",
          "name": "owner",
          "type": "address"
        },
        {
          "internalType": "address",
          "name": "operator",
          "type": "address"
        }
      ],
      "name": "isApprovedForAll",
      "outputs": [
        {
          "internalType": "bool",
          "name": "",
          "type": "bool"
        }
      ],
      "stateMutability": "view",
      "type": "function"
    },
    {
      "inputs": [],
      "name": "mintNFT",
      "outputs": [
        {
          "internalType": "uint256",
          "name": "",
          "type": "uint256"
        }
      ],
      "stateMutability": "nonpayable",
      "type": "function"
    },
    {
      "inputs": [],
      "name": "name",
      "outputs": [
        {
          "internalType": "string",
          "name": "",
          "type": "string"
        }
      ],
      "stateMutability": "view",
      "type": "function"
    },
    {
      "inputs": [
        {
          "internalType": "uint256",
          "name": "tokenId",
          "type": "uint256"
        }
      ],
      "name": "ownerOf",
      "outputs": [
        {
          "internalType": "address",
          "name": "",
          "type": "address"
        }
      ],
      "stateMutability": "view",
      "type": "function"
    },
    {
      "inputs": [
        {
          "internalType": "address",
          "name": "from",
          "type": "address"
        },
        {
          "internalType": "address",
          "name": "to",
          "type": "address"
        },
        {
          "internalType": "uint256",
          "name": "tokenId",
          "type": "uint256"
        }
      ],
      "name": "safeTransferFrom",
      "outputs": [],
      "stateMutability": "nonpayable",
      "type": "function"
    },
    {
      "inputs": [
        {
          "internalType": "address",
          "name": "from",
          "type": "address"
        },
        {
          "internalType": "address",
          "name": "to",
          "type": "address"
        },
        {
          "internalType": "uint256",
          "name": "tokenId",
          "type": "uint256"
        },
        {
          "internalType": "bytes",
          "name": "data",
          "type": "bytes"
        }
      ],
      "name": "safeTransferFrom",
      "outputs": [],
      "stateMutability": "nonpayable",
      "type": "function"
    },
    {
      "inputs": [
        {
          "internalType": "address",
          "name": "operator",
          "type": "address"
        },
        {
          "internalType": "bool",
          "name": "approved",
          "type": "bool"
        }
      ],
      "name": "setApprovalForAll",
      "outputs": [],
      "stateMutability": "nonpayable",
      "type": "function"
    },
    {
      "inputs": [
        {
          "internalType": "bytes4",
          "name": "interfaceId",
          "type": "bytes4"
        }
      ],
      "name": "supportsInterface",
      "outputs": [
        {
          "internalType": "bool",
          "name": "",
          "type": "bool"
        }
      ],
      "stateMutability": "view",
      "type": "function"
    },
    {
      "inputs": [],
      "name": "symbol",
      "outputs": [
        {
          "internalType": "string",
          "name": "",
          "type": "string"
        }
      ],
      "stateMutability": "view",
      "type": "function"
    },
    {
      "inputs": [
        {
          "internalType": "uint256",
          "name": "",
          "type": "uint256"
        }
      ],
      "name": "tokenURI",
      "outputs": [
        {
          "internalType": "string",
          "name": "",
          "type": "string"
        }
      ],
      "stateMutability": "view",
      "type": "function"
    },
    {
      "inputs": [
        {
          "internalType": "address",
          "name": "from",
          "type": "address"
        },
        {
          "internalType": "address",
          "name": "to",
          "type": "address"
        },
        {
          "internalType": "uint256",
          "name": "tokenId",
          "type": "uint256"
        }
      ],
      "name": "transferFrom",
      "outputs": [],
      "stateMutability": "nonpayable",
      "type": "function"
    }
  ],
  "transactionHash": "0x05e9d2ad41096df21995c821ea300ccc12d9df8779fb93c19b08b7ee2eba5d00",
  "args": [],
  "numDeployments": 1,
  "solcInputHash": "69ecc3c2deb456961b15e3d33145e0ca",
  "bytecode": "0x60806040526040518060800160405280605781526020016200256e605791396006908051906020019062000035929190620000ef565b5060006007553480156200004857600080fd5b506040518060400160405280600381526020017f4d495400000000000000000000000000000000000000000000000000000000008152506040518060400160405280600281526020017f6d740000000000000000000000000000000000000000000000000000000000008152508160009080519060200190620000cd929190620000ef565b508060019080519060200190620000e6929190620000ef565b50505062000204565b828054620000fd90620001ce565b90600052602060002090601f0160209004810192826200012157600085556200016d565b82601f106200013c57805160ff19168380011785556200016d565b828001600101855582156200016d579182015b828111156200016c5782518255916020019190600101906200014f565b5b5090506200017c919062000180565b5090565b5b808211156200019b57600081600090555060010162000181565b5090565b7f4e487b7100000000000000000000000000000000000000000000000000000000600052602260045260246000fd5b60006002820490506001821680620001e757607f821691505b60208210811415620001fe57620001fd6200019f565b5b50919050565b61235a80620002146000396000f3fe608060405234801561001057600080fd5b50600436106101005760003560e01c806370a0823111610097578063a22cb46511610066578063a22cb465146102af578063b88d4fde146102cb578063c87b56dd146102e7578063e985e9c51461031757610100565b806370a082311461022557806378a895671461025557806378ce90351461027357806395d89b411461029157610100565b806314f710fe116100d357806314f710fe1461019f57806323b872dd146101bd57806342842e0e146101d95780636352211e146101f557610100565b806301ffc9a71461010557806306fdde0314610135578063081812fc14610153578063095ea7b314610183575b600080fd5b61011f600480360381019061011a9190611622565b610347565b60405161012c919061166a565b60405180910390f35b61013d610429565b60405161014a919061171e565b60405180910390f35b61016d60048036038101906101689190611776565b6104bb565b60405161017a91906117e4565b60405180910390f35b61019d6004803603810190610198919061182b565b610501565b005b6101a7610619565b6040516101b4919061187a565b60405180910390f35b6101d760048036038101906101d29190611895565b610644565b005b6101f360048036038101906101ee9190611895565b6106a4565b005b61020f600480360381019061020a9190611776565b6106c4565b60405161021c91906117e4565b60405180910390f35b61023f600480360381019061023a91906118e8565b610776565b60405161024c919061187a565b60405180910390f35b61025d61082e565b60405161026a919061187a565b60405180910390f35b61027b610838565b604051610288919061171e565b60405180910390f35b6102996108c6565b6040516102a6919061171e565b60405180910390f35b6102c960048036038101906102c49190611941565b610958565b005b6102e560048036038101906102e09190611ab6565b61096e565b005b61030160048036038101906102fc9190611776565b6109d0565b60405161030e919061171e565b60405180910390f35b610331600480360381019061032c9190611b39565b610a64565b60405161033e919061166a565b60405180910390f35b60007f80ac58cd000000000000000000000000000000000000000000000000000000007bffffffffffffffffffffffffffffffffffffffffffffffffffffffff1916827bffffffffffffffffffffffffffffffffffffffffffffffffffffffff1916148061041257507f5b5e139f000000000000000000000000000000000000000000000000000000007bffffffffffffffffffffffffffffffffffffffffffffffffffffffff1916827bffffffffffffffffffffffffffffffffffffffffffffffffffffffff1916145b80610422575061042182610af8565b5b9050919050565b60606000805461043890611ba8565b80601f016020809104026020016040519081016040528092919081815260200182805461046490611ba8565b80156104b15780601f10610486576101008083540402835291602001916104b1565b820191906000526020600020905b81548152906001019060200180831161049457829003601f168201915b5050505050905090565b60006104c682610b62565b6004600083815260200190815260200160002060009054906101000a900473ffffffffffffffffffffffffffffffffffffffff169050919050565b600061050c826106c4565b90508073ffffffffffffffffffffffffffffffffffffffff168373ffffffffffffffffffffffffffffffffffffffff16141561057d576040517f08c379a000000000000000000000000000000000000000000000000000000000815260040161057490611c4c565b60405180910390fd5b8073ffffffffffffffffffffffffffffffffffffffff1661059c610bad565b73ffffffffffffffffffffffffffffffffffffffff1614806105cb57506105ca816105c5610bad565b610a64565b5b61060a576040517f08c379a000000000000000000000000000000000000000000000000000000000815260040161060190611cde565b60405180910390fd5b6106148383610bb5565b505050565b600061062733600754610c6e565b60016007546106369190611d2d565b600781905550600754905090565b61065561064f610bad565b82610c8c565b610694576040517f08c379a000000000000000000000000000000000000000000000000000000000815260040161068b90611df5565b60405180910390fd5b61069f838383610d21565b505050565b6106bf8383836040518060200160405280600081525061096e565b505050565b6000806002600084815260200190815260200160002060009054906101000a900473ffffffffffffffffffffffffffffffffffffffff169050600073ffffffffffffffffffffffffffffffffffffffff168173ffffffffffffffffffffffffffffffffffffffff16141561076d576040517f08c379a000000000000000000000000000000000000000000000000000000000815260040161076490611e61565b60405180910390fd5b80915050919050565b60008073ffffffffffffffffffffffffffffffffffffffff168273ffffffffffffffffffffffffffffffffffffffff1614156107e7576040517f08c379a00000000000000000000000000000000000000000000000000000000081526004016107de90611ef3565b60405180910390fd5b600360008373ffffffffffffffffffffffffffffffffffffffff1673ffffffffffffffffffffffffffffffffffffffff168152602001908152602001600020549050919050565b6000600754905090565b6006805461084590611ba8565b80601f016020809104026020016040519081016040528092919081815260200182805461087190611ba8565b80156108be5780601f10610893576101008083540402835291602001916108be565b820191906000526020600020905b8154815290600101906020018083116108a157829003601f168201915b505050505081565b6060600180546108d590611ba8565b80601f016020809104026020016040519081016040528092919081815260200182805461090190611ba8565b801561094e5780601f106109235761010080835404028352916020019161094e565b820191906000526020600020905b81548152906001019060200180831161093157829003601f168201915b5050505050905090565b61096a610963610bad565b8383610f88565b5050565b61097f610979610bad565b83610c8c565b6109be576040517f08c379a00000000000000000000000000000000000000000000000000000000081526004016109b590611df5565b60405180910390fd5b6109ca848484846110f5565b50505050565b6060600680546109df90611ba8565b80601f0160208091040260200160405190810160405280929190818152602001828054610a0b90611ba8565b8015610a585780601f10610a2d57610100808354040283529160200191610a58565b820191906000526020600020905b815481529060010190602001808311610a3b57829003601f168201915b50505050509050919050565b6000600560008473ffffffffffffffffffffffffffffffffffffffff1673ffffffffffffffffffffffffffffffffffffffff16815260200190815260200160002060008373ffffffffffffffffffffffffffffffffffffffff1673ffffffffffffffffffffffffffffffffffffffff16815260200190815260200160002060009054906101000a900460ff16905092915050565b60007f01ffc9a7000000000000000000000000000000000000000000000000000000007bffffffffffffffffffffffffffffffffffffffffffffffffffffffff1916827bffffffffffffffffffffffffffffffffffffffffffffffffffffffff1916149050919050565b610b6b81611151565b610baa576040517f08c379a0000000000000000000000000000000000000000000000000000000008152600401610ba190611e61565b60405180910390fd5b50565b600033905090565b816004600083815260200190815260200160002060006101000a81548173ffffffffffffffffffffffffffffffffffffffff021916908373ffffffffffffffffffffffffffffffffffffffff160217905550808273ffffffffffffffffffffffffffffffffffffffff16610c28836106c4565b73ffffffffffffffffffffffffffffffffffffffff167f8c5be1e5ebec7d5bd14f71427d1e84f3dd0314c0f7b2291e5b200ac8c7c3b92560405160405180910390a45050565b610c888282604051806020016040528060008152506111bd565b5050565b600080610c98836106c4565b90508073ffffffffffffffffffffffffffffffffffffffff168473ffffffffffffffffffffffffffffffffffffffff161480610cda5750610cd98185610a64565b5b80610d1857508373ffffffffffffffffffffffffffffffffffffffff16610d00846104bb565b73ffffffffffffffffffffffffffffffffffffffff16145b91505092915050565b8273ffffffffffffffffffffffffffffffffffffffff16610d41826106c4565b73ffffffffffffffffffffffffffffffffffffffff1614610d97576040517f08c379a0000000000000000000000000000000000000000000000000000000008152600401610d8e90611f85565b60405180910390fd5b600073ffffffffffffffffffffffffffffffffffffffff168273ffffffffffffffffffffffffffffffffffffffff161415610e07576040517f08c379a0000000000000000000000000000000000000000000000000000000008152600401610dfe90612017565b60405180910390fd5b610e12838383611218565b610e1d600082610bb5565b6001600360008573ffffffffffffffffffffffffffffffffffffffff1673ffffffffffffffffffffffffffffffffffffffff1681526020019081526020016000206000828254610e6d9190612037565b925050819055506001600360008473ffffffffffffffffffffffffffffffffffffffff1673ffffffffffffffffffffffffffffffffffffffff1681526020019081526020016000206000828254610ec49190611d2d565b92505081905550816002600083815260200190815260200160002060006101000a81548173ffffffffffffffffffffffffffffffffffffffff021916908373ffffffffffffffffffffffffffffffffffffffff160217905550808273ffffffffffffffffffffffffffffffffffffffff168473ffffffffffffffffffffffffffffffffffffffff167fddf252ad1be2c89b69c2b068fc378daa952ba7f163c4a11628f55a4df523b3ef60405160405180910390a4610f8383838361121d565b505050565b8173ffffffffffffffffffffffffffffffffffffffff168373ffffffffffffffffffffffffffffffffffffffff161415610ff7576040517f08c379a0000000000000000000000000000000000000000000000000000000008152600401610fee906120b7565b60405180910390fd5b80600560008573ffffffffffffffffffffffffffffffffffffffff1673ffffffffffffffffffffffffffffffffffffffff16815260200190815260200160002060008473ffffffffffffffffffffffffffffffffffffffff1673ffffffffffffffffffffffffffffffffffffffff16815260200190815260200160002060006101000a81548160ff0219169083151502179055508173ffffffffffffffffffffffffffffffffffffffff168373ffffffffffffffffffffffffffffffffffffffff167f17307eab39ab6107e8899845ad3d59bd9653f200f220920489ca2b5937696c31836040516110e8919061166a565b60405180910390a3505050565b611100848484610d21565b61110c84848484611222565b61114b576040517f08c379a000000000000000000000000000000000000000000000000000000000815260040161114290612149565b60405180910390fd5b50505050565b60008073ffffffffffffffffffffffffffffffffffffffff166002600084815260200190815260200160002060009054906101000a900473ffffffffffffffffffffffffffffffffffffffff1673ffffffffffffffffffffffffffffffffffffffff1614159050919050565b6111c783836113b9565b6111d46000848484611222565b611213576040517f08c379a000000000000000000000000000000000000000000000000000000000815260040161120a90612149565b60405180910390fd5b505050565b505050565b505050565b60006112438473ffffffffffffffffffffffffffffffffffffffff16611593565b156113ac578373ffffffffffffffffffffffffffffffffffffffff1663150b7a0261126c610bad565b8786866040518563ffffffff1660e01b815260040161128e94939291906121be565b602060405180830381600087803b1580156112a857600080fd5b505af19250505080156112d957506040513d601f19601f820116820180604052508101906112d6919061221f565b60015b61135c573d8060008114611309576040519150601f19603f3d011682016040523d82523d6000602084013e61130e565b606091505b50600081511415611354576040517f08c379a000000000000000000000000000000000000000000000000000000000815260040161134b90612149565b60405180910390fd5b805181602001fd5b63150b7a0260e01b7bffffffffffffffffffffffffffffffffffffffffffffffffffffffff1916817bffffffffffffffffffffffffffffffffffffffffffffffffffffffff1916149150506113b1565b600190505b949350505050565b600073ffffffffffffffffffffffffffffffffffffffff168273ffffffffffffffffffffffffffffffffffffffff161415611429576040517f08c379a000000000000000000000000000000000000000000000000000000000815260040161142090612298565b60405180910390fd5b61143281611151565b15611472576040517f08c379a000000000000000000000000000000000000000000000000000000000815260040161146990612304565b60405180910390fd5b61147e60008383611218565b6001600360008473ffffffffffffffffffffffffffffffffffffffff1673ffffffffffffffffffffffffffffffffffffffff16815260200190815260200160002060008282546114ce9190611d2d565b92505081905550816002600083815260200190815260200160002060006101000a81548173ffffffffffffffffffffffffffffffffffffffff021916908373ffffffffffffffffffffffffffffffffffffffff160217905550808273ffffffffffffffffffffffffffffffffffffffff16600073ffffffffffffffffffffffffffffffffffffffff167fddf252ad1be2c89b69c2b068fc378daa952ba7f163c4a11628f55a4df523b3ef60405160405180910390a461158f6000838361121d565b5050565b6000808273ffffffffffffffffffffffffffffffffffffffff163b119050919050565b6000604051905090565b600080fd5b600080fd5b60007fffffffff0000000000000000000000000000000000000000000000000000000082169050919050565b6115ff816115ca565b811461160a57600080fd5b50565b60008135905061161c816115f6565b92915050565b600060208284031215611638576116376115c0565b5b60006116468482850161160d565b91505092915050565b60008115159050919050565b6116648161164f565b82525050565b600060208201905061167f600083018461165b565b92915050565b600081519050919050565b600082825260208201905092915050565b60005b838110156116bf5780820151818401526020810190506116a4565b838111156116ce576000848401525b50505050565b6000601f19601f8301169050919050565b60006116f082611685565b6116fa8185611690565b935061170a8185602086016116a1565b611713816116d4565b840191505092915050565b6000602082019050818103600083015261173881846116e5565b905092915050565b6000819050919050565b61175381611740565b811461175e57600080fd5b50565b6000813590506117708161174a565b92915050565b60006020828403121561178c5761178b6115c0565b5b600061179a84828501611761565b91505092915050565b600073ffffffffffffffffffffffffffffffffffffffff82169050919050565b60006117ce826117a3565b9050919050565b6117de816117c3565b82525050565b60006020820190506117f960008301846117d5565b92915050565b611808816117c3565b811461181357600080fd5b50565b600081359050611825816117ff565b92915050565b60008060408385031215611842576118416115c0565b5b600061185085828601611816565b925050602061186185828601611761565b9150509250929050565b61187481611740565b82525050565b600060208201905061188f600083018461186b565b92915050565b6000806000606084860312156118ae576118ad6115c0565b5b60006118bc86828701611816565b93505060206118cd86828701611816565b92505060406118de86828701611761565b9150509250925092565b6000602082840312156118fe576118fd6115c0565b5b600061190c84828501611816565b91505092915050565b61191e8161164f565b811461192957600080fd5b50565b60008135905061193b81611915565b92915050565b60008060408385031215611958576119576115c0565b5b600061196685828601611816565b92505060206119778582860161192c565b9150509250929050565b600080fd5b600080fd5b7f4e487b7100000000000000000000000000000000000000000000000000000000600052604160045260246000fd5b6119c3826116d4565b810181811067ffffffffffffffff821117156119e2576119e161198b565b5b80604052505050565b60006119f56115b6565b9050611a0182826119ba565b919050565b600067ffffffffffffffff821115611a2157611a2061198b565b5b611a2a826116d4565b9050602081019050919050565b82818337600083830152505050565b6000611a59611a5484611a06565b6119eb565b905082815260208101848484011115611a7557611a74611986565b5b611a80848285611a37565b509392505050565b600082601f830112611a9d57611a9c611981565b5b8135611aad848260208601611a46565b91505092915050565b60008060008060808587031215611ad057611acf6115c0565b5b6000611ade87828801611816565b9450506020611aef87828801611816565b9350506040611b0087828801611761565b925050606085013567ffffffffffffffff811115611b2157611b206115c5565b5b611b2d87828801611a88565b91505092959194509250565b60008060408385031215611b5057611b4f6115c0565b5b6000611b5e85828601611816565b9250506020611b6f85828601611816565b9150509250929050565b7f4e487b7100000000000000000000000000000000000000000000000000000000600052602260045260246000fd5b60006002820490506001821680611bc057607f821691505b60208210811415611bd457611bd3611b79565b5b50919050565b7f4552433732313a20617070726f76616c20746f2063757272656e74206f776e6560008201527f7200000000000000000000000000000000000000000000000000000000000000602082015250565b6000611c36602183611690565b9150611c4182611bda565b604082019050919050565b60006020820190508181036000830152611c6581611c29565b9050919050565b7f4552433732313a20617070726f76652063616c6c6572206973206e6f7420746f60008201527f6b656e206f776e6572206e6f7220617070726f76656420666f7220616c6c0000602082015250565b6000611cc8603e83611690565b9150611cd382611c6c565b604082019050919050565b60006020820190508181036000830152611cf781611cbb565b9050919050565b7f4e487b7100000000000000000000000000000000000000000000000000000000600052601160045260246000fd5b6000611d3882611740565b9150611d4383611740565b9250827fffffffffffffffffffffffffffffffffffffffffffffffffffffffffffffffff03821115611d7857611d77611cfe565b5b828201905092915050565b7f4552433732313a2063616c6c6572206973206e6f7420746f6b656e206f776e6560008201527f72206e6f7220617070726f766564000000000000000000000000000000000000602082015250565b6000611ddf602e83611690565b9150611dea82611d83565b604082019050919050565b60006020820190508181036000830152611e0e81611dd2565b9050919050565b7f4552433732313a20696e76616c696420746f6b656e2049440000000000000000600082015250565b6000611e4b601883611690565b9150611e5682611e15565b602082019050919050565b60006020820190508181036000830152611e7a81611e3e565b9050919050565b7f4552433732313a2061646472657373207a65726f206973206e6f74206120766160008201527f6c6964206f776e65720000000000000000000000000000000000000000000000602082015250565b6000611edd602983611690565b9150611ee882611e81565b604082019050919050565b60006020820190508181036000830152611f0c81611ed0565b9050919050565b7f4552433732313a207472616e736665722066726f6d20696e636f72726563742060008201527f6f776e6572000000000000000000000000000000000000000000000000000000602082015250565b6000611f6f602583611690565b9150611f7a82611f13565b604082019050919050565b60006020820190508181036000830152611f9e81611f62565b9050919050565b7f4552433732313a207472616e7366657220746f20746865207a65726f2061646460008201527f7265737300000000000000000000000000000000000000000000000000000000602082015250565b6000612001602483611690565b915061200c82611fa5565b604082019050919050565b6000602082019050818103600083015261203081611ff4565b9050919050565b600061204282611740565b915061204d83611740565b9250828210156120605761205f611cfe565b5b828203905092915050565b7f4552433732313a20617070726f766520746f2063616c6c657200000000000000600082015250565b60006120a1601983611690565b91506120ac8261206b565b602082019050919050565b600060208201905081810360008301526120d081612094565b9050919050565b7f4552433732313a207472616e7366657220746f206e6f6e20455243373231526560008201527f63656976657220696d706c656d656e7465720000000000000000000000000000602082015250565b6000612133603283611690565b915061213e826120d7565b604082019050919050565b6000602082019050818103600083015261216281612126565b9050919050565b600081519050919050565b600082825260208201905092915050565b600061219082612169565b61219a8185612174565b93506121aa8185602086016116a1565b6121b3816116d4565b840191505092915050565b60006080820190506121d360008301876117d5565b6121e060208301866117d5565b6121ed604083018561186b565b81810360608301526121ff8184612185565b905095945050505050565b600081519050612219816115f6565b92915050565b600060208284031215612235576122346115c0565b5b60006122438482850161220a565b91505092915050565b7f4552433732313a206d696e7420746f20746865207a65726f2061646472657373600082015250565b6000612282602083611690565b915061228d8261224c565b602082019050919050565b600060208201905081810360008301526122b181612275565b9050919050565b7f4552433732313a20746f6b656e20616c7265616479206d696e74656400000000600082015250565b60006122ee601c83611690565b91506122f9826122b8565b602082019050919050565b6000602082019050818103600083015261231d816122e1565b905091905056fea2646970667358221220d7438bbd39c9e1d0e81abfd51e37b5ed0bc2e7313dd6f46cc8583296111f1d1a64736f6c63430008090033697066733a2f2f62616679626569673337696f6972373673376d67356f6f6265746e636f6a636d3363336878617379643472766964346a71687934676b61686567342f3f66696c656e616d653d302d5055472e6a736f6e",
  "devdoc": {
    "kind": "dev",
    "methods": {
      "approve(address,uint256)": {
        "details": "See {IERC721-approve}."
      },
      "balanceOf(address)": {
        "details": "See {IERC721-balanceOf}."
      },
      "getApproved(uint256)": {
        "details": "See {IERC721-getApproved}."
      },
      "isApprovedForAll(address,address)": {
        "details": "See {IERC721-isApprovedForAll}."
      },
      "name()": {
        "details": "See {IERC721Metadata-name}."
      },
      "ownerOf(uint256)": {
        "details": "See {IERC721-ownerOf}."
      },
      "safeTransferFrom(address,address,uint256)": {
        "details": "See {IERC721-safeTransferFrom}."
      },
      "safeTransferFrom(address,address,uint256,bytes)": {
        "details": "See {IERC721-safeTransferFrom}."
      },
      "setApprovalForAll(address,bool)": {
        "details": "See {IERC721-setApprovalForAll}."
      },
      "supportsInterface(bytes4)": {
        "details": "See {IERC165-supportsInterface}."
      },
      "symbol()": {
        "details": "See {IERC721Metadata-symbol}."
      },
      "transferFrom(address,address,uint256)": {
        "details": "See {IERC721-transferFrom}."
      }
    },
    "version": 1
  },
  "userdoc": {
    "kind": "user",
    "methods": {},
    "version": 1
  },
  "storageLayout": {
    "storage": [
      {
        "astId": 1183,
        "contract": "contracts/simpleNFT.sol:SimpleNFT",
        "label": "_name",
        "offset": 0,
        "slot": "0",
        "type": "t_string_storage"
      },
      {
        "astId": 1185,
        "contract": "contracts/simpleNFT.sol:SimpleNFT",
        "label": "_symbol",
        "offset": 0,
        "slot": "1",
        "type": "t_string_storage"
      },
      {
        "astId": 1189,
        "contract": "contracts/simpleNFT.sol:SimpleNFT",
        "label": "_owners",
        "offset": 0,
        "slot": "2",
        "type": "t_mapping(t_uint256,t_address)"
      },
      {
        "astId": 1193,
        "contract": "contracts/simpleNFT.sol:SimpleNFT",
        "label": "_balances",
        "offset": 0,
        "slot": "3",
        "type": "t_mapping(t_address,t_uint256)"
      },
      {
        "astId": 1197,
        "contract": "contracts/simpleNFT.sol:SimpleNFT",
        "label": "_tokenApprovals",
        "offset": 0,
        "slot": "4",
        "type": "t_mapping(t_uint256,t_address)"
      },
      {
        "astId": 1203,
        "contract": "contracts/simpleNFT.sol:SimpleNFT",
        "label": "_operatorApprovals",
        "offset": 0,
        "slot": "5",
        "type": "t_mapping(t_address,t_mapping(t_address,t_bool))"
      },
      {
        "astId": 3612,
        "contract": "contracts/simpleNFT.sol:SimpleNFT",
        "label": "TOKEN_URI",
        "offset": 0,
        "slot": "6",
        "type": "t_string_storage"
      },
      {
        "astId": 3615,
        "contract": "contracts/simpleNFT.sol:SimpleNFT",
        "label": "s_tokenCounter",
        "offset": 0,
        "slot": "7",
        "type": "t_uint256"
      }
    ],
    "types": {
      "t_address": {
        "encoding": "inplace",
        "label": "address",
        "numberOfBytes": "20"
      },
      "t_bool": {
        "encoding": "inplace",
        "label": "bool",
        "numberOfBytes": "1"
      },
      "t_mapping(t_address,t_bool)": {
        "encoding": "mapping",
        "key": "t_address",
        "label": "mapping(address => bool)",
        "numberOfBytes": "32",
        "value": "t_bool"
      },
      "t_mapping(t_address,t_mapping(t_address,t_bool))": {
        "encoding": "mapping",
        "key": "t_address",
        "label": "mapping(address => mapping(address => bool))",
        "numberOfBytes": "32",
        "value": "t_mapping(t_address,t_bool)"
      },
      "t_mapping(t_address,t_uint256)": {
        "encoding": "mapping",
        "key": "t_address",
        "label": "mapping(address => uint256)",
        "numberOfBytes": "32",
        "value": "t_uint256"
      },
      "t_mapping(t_uint256,t_address)": {
        "encoding": "mapping",
        "key": "t_uint256",
        "label": "mapping(uint256 => address)",
        "numberOfBytes": "32",
        "value": "t_address"
      },
      "t_string_storage": {
        "encoding": "bytes",
        "label": "string",
        "numberOfBytes": "32"
      },
      "t_uint256": {
        "encoding": "inplace",
        "label": "uint256",
        "numberOfBytes": "32"
      }
    }
  }
}