{
  "address": "0x82D8Bc993B76da779c2773F2bEeb3a4f30E238B9",
  "abi": [
    {
      "inputs": [
        {
          "internalType": "string",
          "name": "_lowSvg",
          "type": "string"
        },
        {
          "internalType": "string",
          "name": "_highSvg",
          "type": "string"
        },
        {
          "internalType": "address",
          "name": "_priceFeed",
          "type": "address"
        }
      ],
      "stateMutability": "nonpayable",
      "type": "constructor"
    },
    {
      "inputs": [],
      "name": "DynamicSVG__NoMoreToMint",
      "type": "error"
    },
    {
      "inputs": [],
      "name": "DynamicSVG__NotTokenFound",
      "type": "error"
    },
    {
      "anonymous": false,
      "inputs": [
        {
          "indexed": true,
          "internalType": "address",
          "name": "owner",
          "type": "address"
        },
        {
          "indexed": true,
          "internalType": "address",
          "name": "approved",
          "type": "address"
        },
        {
          "indexed": true,
          "internalType": "uint256",
          "name": "tokenId",
          "type": "uint256"
        }
      ],
      "name": "Approval",
      "type": "event"
    },
    {
      "anonymous": false,
      "inputs": [
        {
          "indexed": true,
          "internalType": "address",
          "name": "owner",
          "type": "address"
        },
        {
          "indexed": true,
          "internalType": "address",
          "name": "operator",
          "type": "address"
        },
        {
          "indexed": false,
          "internalType": "bool",
          "name": "approved",
          "type": "bool"
        }
      ],
      "name": "ApprovalForAll",
      "type": "event"
    },
    {
      "anonymous": false,
      "inputs": [
        {
          "indexed": true,
          "internalType": "uint256",
          "name": "tokenID",
          "type": "uint256"
        },
        {
          "indexed": false,
          "internalType": "address",
          "name": "minter",
          "type": "address"
        }
      ],
      "name": "NFTMinted",
      "type": "event"
    },
    {
      "anonymous": false,
      "inputs": [
        {
          "indexed": true,
          "internalType": "address",
          "name": "from",
          "type": "address"
        },
        {
          "indexed": true,
          "internalType": "address",
          "name": "to",
          "type": "address"
        },
        {
          "indexed": true,
          "internalType": "uint256",
          "name": "tokenId",
          "type": "uint256"
        }
      ],
      "name": "Transfer",
      "type": "event"
    },
    {
      "inputs": [],
      "name": "CONDITION_PRICE",
      "outputs": [
        {
          "internalType": "uint256",
          "name": "",
          "type": "uint256"
        }
      ],
      "stateMutability": "view",
      "type": "function"
    },
    {
      "inputs": [],
      "name": "TOTAL_SVG",
      "outputs": [
        {
          "internalType": "uint256",
          "name": "",
          "type": "uint256"
        }
      ],
      "stateMutability": "view",
      "type": "function"
    },
    {
      "inputs": [
        {
          "internalType": "address",
          "name": "to",
          "type": "address"
        },
        {
          "internalType": "uint256",
          "name": "tokenId",
          "type": "uint256"
        }
      ],
      "name": "approve",
      "outputs": [],
      "stateMutability": "nonpayable",
      "type": "function"
    },
    {
      "inputs": [
        {
          "internalType": "address",
          "name": "owner",
          "type": "address"
        }
      ],
      "name": "balanceOf",
      "outputs": [
        {
          "internalType": "uint256",
          "name": "",
          "type": "uint256"
        }
      ],
      "stateMutability": "view",
      "type": "function"
    },
    {
      "inputs": [
        {
          "internalType": "uint256",
          "name": "tokenId",
          "type": "uint256"
        }
      ],
      "name": "getApproved",
      "outputs": [
        {
          "internalType": "address",
          "name": "",
          "type": "address"
        }
      ],
      "stateMutability": "view",
      "type": "function"
    },
    {
      "inputs": [],
      "name": "getTokenCounter",
      "outputs": [
        {
          "internalType": "uint256",
          "name": "",
          "type": "uint256"
        }
      ],
      "stateMutability": "view",
      "type": "function"
    },
    {
      "inputs": [
        {
          "internalType": "address",
          "name": "owner",
          "type": "address"
        },
        {
          "internalType": "address",
          "name": "operator",
          "type": "address"
        }
      ],
      "name": "isApprovedForAll",
      "outputs": [
        {
          "internalType": "bool",
          "name": "",
          "type": "bool"
        }
      ],
      "stateMutability": "view",
      "type": "function"
    },
    {
      "inputs": [],
      "name": "mintNFT",
      "outputs": [],
      "stateMutability": "nonpayable",
      "type": "function"
    },
    {
      "inputs": [],
      "name": "name",
      "outputs": [
        {
          "internalType": "string",
          "name": "",
          "type": "string"
        }
      ],
      "stateMutability": "view",
      "type": "function"
    },
    {
      "inputs": [
        {
          "internalType": "uint256",
          "name": "tokenId",
          "type": "uint256"
        }
      ],
      "name": "ownerOf",
      "outputs": [
        {
          "internalType": "address",
          "name": "",
          "type": "address"
        }
      ],
      "stateMutability": "view",
      "type": "function"
    },
    {
      "inputs": [
        {
          "internalType": "address",
          "name": "from",
          "type": "address"
        },
        {
          "internalType": "address",
          "name": "to",
          "type": "address"
        },
        {
          "internalType": "uint256",
          "name": "tokenId",
          "type": "uint256"
        }
      ],
      "name": "safeTransferFrom",
      "outputs": [],
      "stateMutability": "nonpayable",
      "type": "function"
    },
    {
      "inputs": [
        {
          "internalType": "address",
          "name": "from",
          "type": "address"
        },
        {
          "internalType": "address",
          "name": "to",
          "type": "address"
        },
        {
          "internalType": "uint256",
          "name": "tokenId",
          "type": "uint256"
        },
        {
          "internalType": "bytes",
          "name": "data",
          "type": "bytes"
        }
      ],
      "name": "safeTransferFrom",
      "outputs": [],
      "stateMutability": "nonpayable",
      "type": "function"
    },
    {
      "inputs": [
        {
          "internalType": "address",
          "name": "operator",
          "type": "address"
        },
        {
          "internalType": "bool",
          "name": "approved",
          "type": "bool"
        }
      ],
      "name": "setApprovalForAll",
      "outputs": [],
      "stateMutability": "nonpayable",
      "type": "function"
    },
    {
      "inputs": [
        {
          "internalType": "bytes4",
          "name": "interfaceId",
          "type": "bytes4"
        }
      ],
      "name": "supportsInterface",
      "outputs": [
        {
          "internalType": "bool",
          "name": "",
          "type": "bool"
        }
      ],
      "stateMutability": "view",
      "type": "function"
    },
    {
      "inputs": [
        {
          "internalType": "string",
          "name": "svg",
          "type": "string"
        }
      ],
      "name": "svgToImageURI",
      "outputs": [
        {
          "internalType": "string",
          "name": "",
          "type": "string"
        }
      ],
      "stateMutability": "pure",
      "type": "function"
    },
    {
      "inputs": [],
      "name": "symbol",
      "outputs": [
        {
          "internalType": "string",
          "name": "",
          "type": "string"
        }
      ],
      "stateMutability": "view",
      "type": "function"
    },
    {
      "inputs": [
        {
          "internalType": "uint256",
          "name": "tokenID",
          "type": "uint256"
        }
      ],
      "name": "tokenURI",
      "outputs": [
        {
          "internalType": "string",
          "name": "",
          "type": "string"
        }
      ],
      "stateMutability": "view",
      "type": "function"
    },
    {
      "inputs": [
        {
          "internalType": "address",
          "name": "from",
          "type": "address"
        },
        {
          "internalType": "address",
          "name": "to",
          "type": "address"
        },
        {
          "internalType": "uint256",
          "name": "tokenId",
          "type": "uint256"
        }
      ],
      "name": "transferFrom",
      "outputs": [],
      "stateMutability": "nonpayable",
      "type": "function"
    }
  ],
  "transactionHash": "0x672b68323a8cd0575279bcc765da8c5718cf9d0c132ce17adc251378ccdf62c3",
  "args": [
    "<?xml version=\"1.0\" standalone=\"no\"?>\n<svg width=\"1024px\" height=\"1024px\" viewBox=\"0 0 1024 1024\" xmlns=\"http://www.w3.org/2000/svg\">\n  <path fill=\"#333\" d=\"M512 64C264.6 64 64 264.6 64 512s200.6 448 448 448 448-200.6 448-448S759.4 64 512 64zm0 820c-205.4 0-372-166.6-372-372s166.6-372 372-372 372 166.6 372 372-166.6 372-372 372z\"/>\n  <path fill=\"#E6E6E6\" d=\"M512 140c-205.4 0-372 166.6-372 372s166.6 372 372 372 372-166.6 372-372-166.6-372-372-372zM288 421a48.01 48.01 0 0 1 96 0 48.01 48.01 0 0 1-96 0zm376 272h-48.1c-4.2 0-7.8-3.2-8.1-7.4C604 636.1 562.5 597 512 597s-92.1 39.1-95.8 88.6c-.3 4.2-3.9 7.4-8.1 7.4H360a8 8 0 0 1-8-8.4c4.4-84.3 74.5-151.6 160-151.6s155.6 67.3 160 151.6a8 8 0 0 1-8 8.4zm24-224a48.01 48.01 0 0 1 0-96 48.01 48.01 0 0 1 0 96z\"/>\n  <path fill=\"#333\" d=\"M288 421a48 48 0 1 0 96 0 48 48 0 1 0-96 0zm224 112c-85.5 0-155.6 67.3-160 151.6a8 8 0 0 0 8 8.4h48.1c4.2 0 7.8-3.2 8.1-7.4 3.7-49.5 45.3-88.6 95.8-88.6s92 39.1 95.8 88.6c.3 4.2 3.9 7.4 8.1 7.4H664a8 8 0 0 0 8-8.4C667.6 600.3 597.5 533 512 533zm128-112a48 48 0 1 0 96 0 48 48 0 1 0-96 0z\"/>\n</svg>\n",
    "<svg viewBox=\"0 0 200 200\" width=\"400\"  height=\"400\" xmlns=\"http://www.w3.org/2000/svg\">\n  <circle cx=\"100\" cy=\"100\" fill=\"yellow\" r=\"78\" stroke=\"black\" stroke-width=\"3\"/>\n  <g class=\"eyes\">\n    <circle cx=\"61\" cy=\"82\" r=\"12\"/>\n    <circle cx=\"127\" cy=\"82\" r=\"12\"/>\n  </g>\n  <path d=\"m136.81 116.53c.69 26.17-64.11 42-81.52-.73\" style=\"fill:none; stroke: black; stroke-width: 3;\"/>\n</svg>",
    "0x8A753747A1Fa494EC906cE90E9f37563A8AF630e"
  ],
  "numDeployments": 1,
  "solcInputHash": "513ac85215ee2541f7e9124ab91020e6",
  "bytecode": "0x60806040523480156200001157600080fd5b506040516200372838038062003728833981810160405281019062000037919062000659565b6040518060400160405280600f81526020017f44796e616d696320535647204e465400000000000000000000000000000000008152506040518060400160405280600381526020017f44534e00000000000000000000000000000000000000000000000000000000008152508160009080519060200190620000bb929190620003a7565b508060019080519060200190620000d4929190620003a7565b505050620000e8836200017b60201b60201c565b60079080519060200190620000ff929190620003a7565b5062000111826200017b60201b60201c565b6008908051906020019062000128929190620003a7565b50600060068190555080600960006101000a81548173ffffffffffffffffffffffffffffffffffffffff021916908373ffffffffffffffffffffffffffffffffffffffff16021790555050505062000944565b60606000620001b68360405160200162000196919062000740565b6040516020818303038152906040526200021960201b62000db81760201c565b90506040518060400160405280601a81526020017f646174613a696d6167652f7376672b786d6c3b6261736536342c000000000000815250816040516020016200020292919062000759565b604051602081830303815290604052915050919050565b60606000825114156200023e57604051806020016040528060008152509050620003a2565b6000604051806060016040528060408152602001620036e86040913990506000600360028551620002709190620007ba565b6200027c919062000846565b60046200028a91906200087e565b905060006020826200029d9190620007ba565b67ffffffffffffffff811115620002b957620002b862000486565b5b6040519080825280601f01601f191660200182016040528015620002ec5781602001600182028036833780820191505090505b509050818152600183018586518101602084015b818310156200035d576003830192508251603f8160121c168501518253600182019150603f81600c1c168501518253600182019150603f8160061c168501518253600182019150603f811685015182536001820191505062000300565b6003895106600181146200037a57600281146200038b5762000396565b613d3d60f01b600283035262000396565b603d60f81b60018303525b50505050508093505050505b919050565b828054620003b5906200090e565b90600052602060002090601f016020900481019282620003d9576000855562000425565b82601f10620003f457805160ff191683800117855562000425565b8280016001018555821562000425579182015b828111156200042457825182559160200191906001019062000407565b5b50905062000434919062000438565b5090565b5b808211156200045357600081600090555060010162000439565b5090565b6000604051905090565b600080fd5b600080fd5b600080fd5b600080fd5b6000601f19601f8301169050919050565b7f4e487b7100000000000000000000000000000000000000000000000000000000600052604160045260246000fd5b620004c08262000475565b810181811067ffffffffffffffff82111715620004e257620004e162000486565b5b80604052505050565b6000620004f762000457565b9050620005058282620004b5565b919050565b600067ffffffffffffffff82111562000528576200052762000486565b5b620005338262000475565b9050602081019050919050565b60005b838110156200056057808201518184015260208101905062000543565b8381111562000570576000848401525b50505050565b60006200058d62000587846200050a565b620004eb565b905082815260208101848484011115620005ac57620005ab62000470565b5b620005b984828562000540565b509392505050565b600082601f830112620005d957620005d86200046b565b5b8151620005eb84826020860162000576565b91505092915050565b600073ffffffffffffffffffffffffffffffffffffffff82169050919050565b60006200062182620005f4565b9050919050565b620006338162000614565b81146200063f57600080fd5b50565b600081519050620006538162000628565b92915050565b60008060006060848603121562000675576200067462000461565b5b600084015167ffffffffffffffff81111562000696576200069562000466565b5b620006a486828701620005c1565b935050602084015167ffffffffffffffff811115620006c857620006c762000466565b5b620006d686828701620005c1565b9250506040620006e98682870162000642565b9150509250925092565b600081519050919050565b600081905092915050565b60006200071682620006f3565b620007228185620006fe565b93506200073481856020860162000540565b80840191505092915050565b60006200074e828462000709565b915081905092915050565b600062000767828562000709565b915062000775828462000709565b91508190509392505050565b6000819050919050565b7f4e487b7100000000000000000000000000000000000000000000000000000000600052601160045260246000fd5b6000620007c78262000781565b9150620007d48362000781565b9250827fffffffffffffffffffffffffffffffffffffffffffffffffffffffffffffffff038211156200080c576200080b6200078b565b5b828201905092915050565b7f4e487b7100000000000000000000000000000000000000000000000000000000600052601260045260246000fd5b6000620008538262000781565b9150620008608362000781565b92508262000873576200087262000817565b5b828204905092915050565b60006200088b8262000781565b9150620008988362000781565b9250817fffffffffffffffffffffffffffffffffffffffffffffffffffffffffffffffff0483118215151615620008d457620008d36200078b565b5b828202905092915050565b7f4e487b7100000000000000000000000000000000000000000000000000000000600052602260045260246000fd5b600060028204905060018216806200092757607f821691505b602082108114156200093e576200093d620008df565b5b50919050565b612d9480620009546000396000f3fe608060405234801561001057600080fd5b50600436106101165760003560e01c80636e02007d116100a2578063997beeab11610071578063997beeab146102e1578063a22cb465146102ff578063b88d4fde1461031b578063c87b56dd14610337578063e985e9c51461036757610116565b80636e02007d1461025757806370a0823114610275578063938227b3146102a557806395d89b41146102c357610116565b806314f710fe116100e957806314f710fe146101b557806323b872dd146101bf57806330d871c6146101db57806342842e0e1461020b5780636352211e1461022757610116565b806301ffc9a71461011b57806306fdde031461014b578063081812fc14610169578063095ea7b314610199575b600080fd5b61013560048036038101906101309190611a98565b610397565b6040516101429190611ae0565b60405180910390f35b610153610479565b6040516101609190611b94565b60405180910390f35b610183600480360381019061017e9190611bec565b61050b565b6040516101909190611c5a565b60405180910390f35b6101b360048036038101906101ae9190611ca1565b610551565b005b6101bd610669565b005b6101d960048036038101906101d49190611ce1565b610706565b005b6101f560048036038101906101f09190611e69565b610766565b6040516102029190611b94565b60405180910390f35b61022560048036038101906102209190611ce1565b6107f3565b005b610241600480360381019061023c9190611bec565b610813565b60405161024e9190611c5a565b60405180910390f35b61025f6108c5565b60405161026c9190611ec1565b60405180910390f35b61028f600480360381019061028a9190611edc565b6108cf565b60405161029c9190611ec1565b60405180910390f35b6102ad610987565b6040516102ba9190611ec1565b60405180910390f35b6102cb61098c565b6040516102d89190611b94565b60405180910390f35b6102e9610a1e565b6040516102f69190611ec1565b60405180910390f35b61031960048036038101906103149190611f35565b610a2b565b005b61033560048036038101906103309190612016565b610a41565b005b610351600480360381019061034c9190611bec565b610aa3565b60405161035e9190611b94565b60405180910390f35b610381600480360381019061037c9190612099565b610d24565b60405161038e9190611ae0565b60405180910390f35b60007f80ac58cd000000000000000000000000000000000000000000000000000000007bffffffffffffffffffffffffffffffffffffffffffffffffffffffff1916827bffffffffffffffffffffffffffffffffffffffffffffffffffffffff1916148061046257507f5b5e139f000000000000000000000000000000000000000000000000000000007bffffffffffffffffffffffffffffffffffffffffffffffffffffffff1916827bffffffffffffffffffffffffffffffffffffffffffffffffffffffff1916145b80610472575061047182610f31565b5b9050919050565b60606000805461048890612108565b80601f01602080910402602001604051908101604052809291908181526020018280546104b490612108565b80156105015780601f106104d657610100808354040283529160200191610501565b820191906000526020600020905b8154815290600101906020018083116104e457829003601f168201915b5050505050905090565b600061051682610f9b565b6004600083815260200190815260200160002060009054906101000a900473ffffffffffffffffffffffffffffffffffffffff169050919050565b600061055c82610813565b90508073ffffffffffffffffffffffffffffffffffffffff168373ffffffffffffffffffffffffffffffffffffffff1614156105cd576040517f08c379a00000000000000000000000000000000000000000000000000000000081526004016105c4906121ac565b60405180910390fd5b8073ffffffffffffffffffffffffffffffffffffffff166105ec610fe6565b73ffffffffffffffffffffffffffffffffffffffff16148061061b575061061a81610615610fe6565b610d24565b5b61065a576040517f08c379a00000000000000000000000000000000000000000000000000000000081526004016106519061223e565b60405180910390fd5b6106648383610fee565b505050565b600a60065411156106a6576040517f822f3bfa00000000000000000000000000000000000000000000000000000000815260040160405180910390fd5b6106b2336006546110a7565b6006547f0176f203df400d7bd5f1b1c9ef36c16709bf3b5d9fd35f000a6bae32393f66c3336040516106e49190611c5a565b60405180910390a2600660008154809291906106ff9061228d565b9190505550565b610717610711610fe6565b826110c5565b610756576040517f08c379a000000000000000000000000000000000000000000000000000000000815260040161074d90612348565b60405180910390fd5b61076183838361115a565b505050565b606060006107928360405160200161077e91906123a4565b604051602081830303815290604052610db8565b90506040518060400160405280601a81526020017f646174613a696d6167652f7376672b786d6c3b6261736536342c000000000000815250816040516020016107dc9291906123bb565b604051602081830303815290604052915050919050565b61080e83838360405180602001604052806000815250610a41565b505050565b6000806002600084815260200190815260200160002060009054906101000a900473ffffffffffffffffffffffffffffffffffffffff169050600073ffffffffffffffffffffffffffffffffffffffff168173ffffffffffffffffffffffffffffffffffffffff1614156108bc576040517f08c379a00000000000000000000000000000000000000000000000000000000081526004016108b39061242b565b60405180910390fd5b80915050919050565b6000600654905090565b60008073ffffffffffffffffffffffffffffffffffffffff168273ffffffffffffffffffffffffffffffffffffffff161415610940576040517f08c379a0000000000000000000000000000000000000000000000000000000008152600401610937906124bd565b60405180910390fd5b600360008373ffffffffffffffffffffffffffffffffffffffff1673ffffffffffffffffffffffffffffffffffffffff168152602001908152602001600020549050919050565b600a81565b60606001805461099b90612108565b80601f01602080910402602001604051908101604052809291908181526020018280546109c790612108565b8015610a145780601f106109e957610100808354040283529160200191610a14565b820191906000526020600020905b8154815290600101906020018083116109f757829003601f168201915b5050505050905090565b686c6b935b8bbd40000081565b610a3d610a36610fe6565b83836113c1565b5050565b610a52610a4c610fe6565b836110c5565b610a91576040517f08c379a0000000000000000000000000000000000000000000000000000000008152600401610a8890612348565b60405180910390fd5b610a9d8484848461152e565b50505050565b6060610aae8261158a565b610ae4576040517f9ce2e88a00000000000000000000000000000000000000000000000000000000815260040160405180910390fd5b60008060078054610af490612108565b80601f0160208091040260200160405190810160405280929190818152602001828054610b2090612108565b8015610b6d5780601f10610b4257610100808354040283529160200191610b6d565b820191906000526020600020905b815481529060010190602001808311610b5057829003601f168201915b50505050509050600960009054906101000a900473ffffffffffffffffffffffffffffffffffffffff1673ffffffffffffffffffffffffffffffffffffffff1663feaf968c6040518163ffffffff1660e01b815260040160a06040518083038186803b158015610bdc57600080fd5b505afa158015610bf0573d6000803e3d6000fd5b505050506040513d601f19601f82011682018060405250810190610c14919061256a565b909192935090915090505080925050686c6b935b8bbd400000821115610cc25760088054610c4190612108565b80601f0160208091040260200160405190810160405280929190818152602001828054610c6d90612108565b8015610cba5780601f10610c8f57610100808354040283529160200191610cba565b820191906000526020600020905b815481529060010190602001808311610c9d57829003601f168201915b505050505090505b610cca6115f6565b610cfb610cd5610479565b83604051602001610ce79291906127ad565b604051602081830303815290604052610db8565b604051602001610d0c9291906123bb565b60405160208183030381529060405292505050919050565b6000600560008473ffffffffffffffffffffffffffffffffffffffff1673ffffffffffffffffffffffffffffffffffffffff16815260200190815260200160002060008373ffffffffffffffffffffffffffffffffffffffff1673ffffffffffffffffffffffffffffffffffffffff16815260200190815260200160002060009054906101000a900460ff16905092915050565b6060600082511415610ddb57604051806020016040528060008152509050610f2c565b6000604051806060016040528060408152602001612d1f6040913990506000600360028551610e0a91906127fd565b610e149190612882565b6004610e2091906128b3565b90506000602082610e3191906127fd565b67ffffffffffffffff811115610e4a57610e49611d3e565b5b6040519080825280601f01601f191660200182016040528015610e7c5781602001600182028036833780820191505090505b509050818152600183018586518101602084015b81831015610eeb576003830192508251603f8160121c168501518253600182019150603f81600c1c168501518253600182019150603f8160061c168501518253600182019150603f8116850151825360018201915050610e90565b600389510660018114610f055760028114610f1557610f20565b613d3d60f01b6002830352610f20565b603d60f81b60018303525b50505050508093505050505b919050565b60007f01ffc9a7000000000000000000000000000000000000000000000000000000007bffffffffffffffffffffffffffffffffffffffffffffffffffffffff1916827bffffffffffffffffffffffffffffffffffffffffffffffffffffffff1916149050919050565b610fa48161158a565b610fe3576040517f08c379a0000000000000000000000000000000000000000000000000000000008152600401610fda9061242b565b60405180910390fd5b50565b600033905090565b816004600083815260200190815260200160002060006101000a81548173ffffffffffffffffffffffffffffffffffffffff021916908373ffffffffffffffffffffffffffffffffffffffff160217905550808273ffffffffffffffffffffffffffffffffffffffff1661106183610813565b73ffffffffffffffffffffffffffffffffffffffff167f8c5be1e5ebec7d5bd14f71427d1e84f3dd0314c0f7b2291e5b200ac8c7c3b92560405160405180910390a45050565b6110c1828260405180602001604052806000815250611633565b5050565b6000806110d183610813565b90508073ffffffffffffffffffffffffffffffffffffffff168473ffffffffffffffffffffffffffffffffffffffff16148061111357506111128185610d24565b5b8061115157508373ffffffffffffffffffffffffffffffffffffffff166111398461050b565b73ffffffffffffffffffffffffffffffffffffffff16145b91505092915050565b8273ffffffffffffffffffffffffffffffffffffffff1661117a82610813565b73ffffffffffffffffffffffffffffffffffffffff16146111d0576040517f08c379a00000000000000000000000000000000000000000000000000000000081526004016111c79061297f565b60405180910390fd5b600073ffffffffffffffffffffffffffffffffffffffff168273ffffffffffffffffffffffffffffffffffffffff161415611240576040517f08c379a000000000000000000000000000000000000000000000000000000000815260040161123790612a11565b60405180910390fd5b61124b83838361168e565b611256600082610fee565b6001600360008573ffffffffffffffffffffffffffffffffffffffff1673ffffffffffffffffffffffffffffffffffffffff16815260200190815260200160002060008282546112a69190612a31565b925050819055506001600360008473ffffffffffffffffffffffffffffffffffffffff1673ffffffffffffffffffffffffffffffffffffffff16815260200190815260200160002060008282546112fd91906127fd565b92505081905550816002600083815260200190815260200160002060006101000a81548173ffffffffffffffffffffffffffffffffffffffff021916908373ffffffffffffffffffffffffffffffffffffffff160217905550808273ffffffffffffffffffffffffffffffffffffffff168473ffffffffffffffffffffffffffffffffffffffff167fddf252ad1be2c89b69c2b068fc378daa952ba7f163c4a11628f55a4df523b3ef60405160405180910390a46113bc838383611693565b505050565b8173ffffffffffffffffffffffffffffffffffffffff168373ffffffffffffffffffffffffffffffffffffffff161415611430576040517f08c379a000000000000000000000000000000000000000000000000000000000815260040161142790612ab1565b60405180910390fd5b80600560008573ffffffffffffffffffffffffffffffffffffffff1673ffffffffffffffffffffffffffffffffffffffff16815260200190815260200160002060008473ffffffffffffffffffffffffffffffffffffffff1673ffffffffffffffffffffffffffffffffffffffff16815260200190815260200160002060006101000a81548160ff0219169083151502179055508173ffffffffffffffffffffffffffffffffffffffff168373ffffffffffffffffffffffffffffffffffffffff167f17307eab39ab6107e8899845ad3d59bd9653f200f220920489ca2b5937696c31836040516115219190611ae0565b60405180910390a3505050565b61153984848461115a565b61154584848484611698565b611584576040517f08c379a000000000000000000000000000000000000000000000000000000000815260040161157b90612b43565b60405180910390fd5b50505050565b60008073ffffffffffffffffffffffffffffffffffffffff166002600084815260200190815260200160002060009054906101000a900473ffffffffffffffffffffffffffffffffffffffff1673ffffffffffffffffffffffffffffffffffffffff1614159050919050565b60606040518060400160405280601d81526020017f646174613a6170706c69636174696f6e2f6a736f6e3b6261736536342c000000815250905090565b61163d838361182f565b61164a6000848484611698565b611689576040517f08c379a000000000000000000000000000000000000000000000000000000000815260040161168090612b43565b60405180910390fd5b505050565b505050565b505050565b60006116b98473ffffffffffffffffffffffffffffffffffffffff16611a09565b15611822578373ffffffffffffffffffffffffffffffffffffffff1663150b7a026116e2610fe6565b8786866040518563ffffffff1660e01b81526004016117049493929190612bb8565b602060405180830381600087803b15801561171e57600080fd5b505af192505050801561174f57506040513d601f19601f8201168201806040525081019061174c9190612c19565b60015b6117d2573d806000811461177f576040519150601f19603f3d011682016040523d82523d6000602084013e611784565b606091505b506000815114156117ca576040517f08c379a00000000000000000000000000000000000000000000000000000000081526004016117c190612b43565b60405180910390fd5b805181602001fd5b63150b7a0260e01b7bffffffffffffffffffffffffffffffffffffffffffffffffffffffff1916817bffffffffffffffffffffffffffffffffffffffffffffffffffffffff191614915050611827565b600190505b949350505050565b600073ffffffffffffffffffffffffffffffffffffffff168273ffffffffffffffffffffffffffffffffffffffff16141561189f576040517f08c379a000000000000000000000000000000000000000000000000000000000815260040161189690612c92565b60405180910390fd5b6118a88161158a565b156118e8576040517f08c379a00000000000000000000000000000000000000000000000000000000081526004016118df90612cfe565b60405180910390fd5b6118f46000838361168e565b6001600360008473ffffffffffffffffffffffffffffffffffffffff1673ffffffffffffffffffffffffffffffffffffffff168152602001908152602001600020600082825461194491906127fd565b92505081905550816002600083815260200190815260200160002060006101000a81548173ffffffffffffffffffffffffffffffffffffffff021916908373ffffffffffffffffffffffffffffffffffffffff160217905550808273ffffffffffffffffffffffffffffffffffffffff16600073ffffffffffffffffffffffffffffffffffffffff167fddf252ad1be2c89b69c2b068fc378daa952ba7f163c4a11628f55a4df523b3ef60405160405180910390a4611a0560008383611693565b5050565b6000808273ffffffffffffffffffffffffffffffffffffffff163b119050919050565b6000604051905090565b600080fd5b600080fd5b60007fffffffff0000000000000000000000000000000000000000000000000000000082169050919050565b611a7581611a40565b8114611a8057600080fd5b50565b600081359050611a9281611a6c565b92915050565b600060208284031215611aae57611aad611a36565b5b6000611abc84828501611a83565b91505092915050565b60008115159050919050565b611ada81611ac5565b82525050565b6000602082019050611af56000830184611ad1565b92915050565b600081519050919050565b600082825260208201905092915050565b60005b83811015611b35578082015181840152602081019050611b1a565b83811115611b44576000848401525b50505050565b6000601f19601f8301169050919050565b6000611b6682611afb565b611b708185611b06565b9350611b80818560208601611b17565b611b8981611b4a565b840191505092915050565b60006020820190508181036000830152611bae8184611b5b565b905092915050565b6000819050919050565b611bc981611bb6565b8114611bd457600080fd5b50565b600081359050611be681611bc0565b92915050565b600060208284031215611c0257611c01611a36565b5b6000611c1084828501611bd7565b91505092915050565b600073ffffffffffffffffffffffffffffffffffffffff82169050919050565b6000611c4482611c19565b9050919050565b611c5481611c39565b82525050565b6000602082019050611c6f6000830184611c4b565b92915050565b611c7e81611c39565b8114611c8957600080fd5b50565b600081359050611c9b81611c75565b92915050565b60008060408385031215611cb857611cb7611a36565b5b6000611cc685828601611c8c565b9250506020611cd785828601611bd7565b9150509250929050565b600080600060608486031215611cfa57611cf9611a36565b5b6000611d0886828701611c8c565b9350506020611d1986828701611c8c565b9250506040611d2a86828701611bd7565b9150509250925092565b600080fd5b600080fd5b7f4e487b7100000000000000000000000000000000000000000000000000000000600052604160045260246000fd5b611d7682611b4a565b810181811067ffffffffffffffff82111715611d9557611d94611d3e565b5b80604052505050565b6000611da8611a2c565b9050611db48282611d6d565b919050565b600067ffffffffffffffff821115611dd457611dd3611d3e565b5b611ddd82611b4a565b9050602081019050919050565b82818337600083830152505050565b6000611e0c611e0784611db9565b611d9e565b905082815260208101848484011115611e2857611e27611d39565b5b611e33848285611dea565b509392505050565b600082601f830112611e5057611e4f611d34565b5b8135611e60848260208601611df9565b91505092915050565b600060208284031215611e7f57611e7e611a36565b5b600082013567ffffffffffffffff811115611e9d57611e9c611a3b565b5b611ea984828501611e3b565b91505092915050565b611ebb81611bb6565b82525050565b6000602082019050611ed66000830184611eb2565b92915050565b600060208284031215611ef257611ef1611a36565b5b6000611f0084828501611c8c565b91505092915050565b611f1281611ac5565b8114611f1d57600080fd5b50565b600081359050611f2f81611f09565b92915050565b60008060408385031215611f4c57611f4b611a36565b5b6000611f5a85828601611c8c565b9250506020611f6b85828601611f20565b9150509250929050565b600067ffffffffffffffff821115611f9057611f8f611d3e565b5b611f9982611b4a565b9050602081019050919050565b6000611fb9611fb484611f75565b611d9e565b905082815260208101848484011115611fd557611fd4611d39565b5b611fe0848285611dea565b509392505050565b600082601f830112611ffd57611ffc611d34565b5b813561200d848260208601611fa6565b91505092915050565b600080600080608085870312156120305761202f611a36565b5b600061203e87828801611c8c565b945050602061204f87828801611c8c565b935050604061206087828801611bd7565b925050606085013567ffffffffffffffff81111561208157612080611a3b565b5b61208d87828801611fe8565b91505092959194509250565b600080604083850312156120b0576120af611a36565b5b60006120be85828601611c8c565b92505060206120cf85828601611c8c565b9150509250929050565b7f4e487b7100000000000000000000000000000000000000000000000000000000600052602260045260246000fd5b6000600282049050600182168061212057607f821691505b60208210811415612134576121336120d9565b5b50919050565b7f4552433732313a20617070726f76616c20746f2063757272656e74206f776e6560008201527f7200000000000000000000000000000000000000000000000000000000000000602082015250565b6000612196602183611b06565b91506121a18261213a565b604082019050919050565b600060208201905081810360008301526121c581612189565b9050919050565b7f4552433732313a20617070726f76652063616c6c6572206973206e6f7420746f60008201527f6b656e206f776e6572206e6f7220617070726f76656420666f7220616c6c0000602082015250565b6000612228603e83611b06565b9150612233826121cc565b604082019050919050565b600060208201905081810360008301526122578161221b565b9050919050565b7f4e487b7100000000000000000000000000000000000000000000000000000000600052601160045260246000fd5b600061229882611bb6565b91507fffffffffffffffffffffffffffffffffffffffffffffffffffffffffffffffff8214156122cb576122ca61225e565b5b600182019050919050565b7f4552433732313a2063616c6c6572206973206e6f7420746f6b656e206f776e6560008201527f72206e6f7220617070726f766564000000000000000000000000000000000000602082015250565b6000612332602e83611b06565b915061233d826122d6565b604082019050919050565b6000602082019050818103600083015261236181612325565b9050919050565b600081905092915050565b600061237e82611afb565b6123888185612368565b9350612398818560208601611b17565b80840191505092915050565b60006123b08284612373565b915081905092915050565b60006123c78285612373565b91506123d38284612373565b91508190509392505050565b7f4552433732313a20696e76616c696420746f6b656e2049440000000000000000600082015250565b6000612415601883611b06565b9150612420826123df565b602082019050919050565b6000602082019050818103600083015261244481612408565b9050919050565b7f4552433732313a2061646472657373207a65726f206973206e6f74206120766160008201527f6c6964206f776e65720000000000000000000000000000000000000000000000602082015250565b60006124a7602983611b06565b91506124b28261244b565b604082019050919050565b600060208201905081810360008301526124d68161249a565b9050919050565b600069ffffffffffffffffffff82169050919050565b6124fc816124dd565b811461250757600080fd5b50565b600081519050612519816124f3565b92915050565b6000819050919050565b6125328161251f565b811461253d57600080fd5b50565b60008151905061254f81612529565b92915050565b60008151905061256481611bc0565b92915050565b600080600080600060a0868803121561258657612585611a36565b5b60006125948882890161250a565b95505060206125a588828901612540565b94505060406125b688828901612555565b93505060606125c788828901612555565b92505060806125d88882890161250a565b9150509295509295909350565b7f7b226e616d65223a220000000000000000000000000000000000000000000000600082015250565b600061261b600983612368565b9150612626826125e5565b600982019050919050565b7f222c20226465736372697074696f6e223a22416e204e4654207468617420636860008201527f616e676573206261736564206f6e2074686520436861696e6c696e6b2046656560208201527f64222c2000000000000000000000000000000000000000000000000000000000604082015250565b60006126b3604483612368565b91506126be82612631565b604482019050919050565b7f2261747472696275746573223a205b7b2274726169745f74797065223a20226360008201527f6f6f6c6e657373222c202276616c7565223a203130307d5d2c2022696d61676560208201527f223a220000000000000000000000000000000000000000000000000000000000604082015250565b600061274b604383612368565b9150612756826126c9565b604382019050919050565b7f227d000000000000000000000000000000000000000000000000000000000000600082015250565b6000612797600283612368565b91506127a282612761565b600282019050919050565b60006127b88261260e565b91506127c48285612373565b91506127cf826126a6565b91506127da8261273e565b91506127e68284612373565b91506127f18261278a565b91508190509392505050565b600061280882611bb6565b915061281383611bb6565b9250827fffffffffffffffffffffffffffffffffffffffffffffffffffffffffffffffff038211156128485761284761225e565b5b828201905092915050565b7f4e487b7100000000000000000000000000000000000000000000000000000000600052601260045260246000fd5b600061288d82611bb6565b915061289883611bb6565b9250826128a8576128a7612853565b5b828204905092915050565b60006128be82611bb6565b91506128c983611bb6565b9250817fffffffffffffffffffffffffffffffffffffffffffffffffffffffffffffffff04831182151516156129025761290161225e565b5b828202905092915050565b7f4552433732313a207472616e736665722066726f6d20696e636f72726563742060008201527f6f776e6572000000000000000000000000000000000000000000000000000000602082015250565b6000612969602583611b06565b91506129748261290d565b604082019050919050565b600060208201905081810360008301526129988161295c565b9050919050565b7f4552433732313a207472616e7366657220746f20746865207a65726f2061646460008201527f7265737300000000000000000000000000000000000000000000000000000000602082015250565b60006129fb602483611b06565b9150612a068261299f565b604082019050919050565b60006020820190508181036000830152612a2a816129ee565b9050919050565b6000612a3c82611bb6565b9150612a4783611bb6565b925082821015612a5a57612a5961225e565b5b828203905092915050565b7f4552433732313a20617070726f766520746f2063616c6c657200000000000000600082015250565b6000612a9b601983611b06565b9150612aa682612a65565b602082019050919050565b60006020820190508181036000830152612aca81612a8e565b9050919050565b7f4552433732313a207472616e7366657220746f206e6f6e20455243373231526560008201527f63656976657220696d706c656d656e7465720000000000000000000000000000602082015250565b6000612b2d603283611b06565b9150612b3882612ad1565b604082019050919050565b60006020820190508181036000830152612b5c81612b20565b9050919050565b600081519050919050565b600082825260208201905092915050565b6000612b8a82612b63565b612b948185612b6e565b9350612ba4818560208601611b17565b612bad81611b4a565b840191505092915050565b6000608082019050612bcd6000830187611c4b565b612bda6020830186611c4b565b612be76040830185611eb2565b8181036060830152612bf98184612b7f565b905095945050505050565b600081519050612c1381611a6c565b92915050565b600060208284031215612c2f57612c2e611a36565b5b6000612c3d84828501612c04565b91505092915050565b7f4552433732313a206d696e7420746f20746865207a65726f2061646472657373600082015250565b6000612c7c602083611b06565b9150612c8782612c46565b602082019050919050565b60006020820190508181036000830152612cab81612c6f565b9050919050565b7f4552433732313a20746f6b656e20616c7265616479206d696e74656400000000600082015250565b6000612ce8601c83611b06565b9150612cf382612cb2565b602082019050919050565b60006020820190508181036000830152612d1781612cdb565b905091905056fe4142434445464748494a4b4c4d4e4f505152535455565758595a6162636465666768696a6b6c6d6e6f707172737475767778797a303132333435363738392b2fa2646970667358221220daa17dcb0cd995dbd5dcb2cec6a928309d7e62e8de324cfedef23903b3ba7c8a64736f6c634300080900334142434445464748494a4b4c4d4e4f505152535455565758595a6162636465666768696a6b6c6d6e6f707172737475767778797a303132333435363738392b2f",
  "devdoc": {
    "kind": "dev",
    "methods": {
      "approve(address,uint256)": {
        "details": "See {IERC721-approve}."
      },
      "balanceOf(address)": {
        "details": "See {IERC721-balanceOf}."
      },
      "getApproved(uint256)": {
        "details": "See {IERC721-getApproved}."
      },
      "isApprovedForAll(address,address)": {
        "details": "See {IERC721-isApprovedForAll}."
      },
      "name()": {
        "details": "See {IERC721Metadata-name}."
      },
      "ownerOf(uint256)": {
        "details": "See {IERC721-ownerOf}."
      },
      "safeTransferFrom(address,address,uint256)": {
        "details": "See {IERC721-safeTransferFrom}."
      },
      "safeTransferFrom(address,address,uint256,bytes)": {
        "details": "See {IERC721-safeTransferFrom}."
      },
      "setApprovalForAll(address,bool)": {
        "details": "See {IERC721-setApprovalForAll}."
      },
      "supportsInterface(bytes4)": {
        "details": "See {IERC165-supportsInterface}."
      },
      "symbol()": {
        "details": "See {IERC721Metadata-symbol}."
      },
      "transferFrom(address,address,uint256)": {
        "details": "See {IERC721-transferFrom}."
      }
    },
    "version": 1
  },
  "userdoc": {
    "kind": "user",
    "methods": {},
    "version": 1
  },
  "storageLayout": {
    "storage": [
      {
        "astId": 71,
        "contract": "contracts/DynamicSVG.sol:DynamicSVG",
        "label": "_name",
        "offset": 0,
        "slot": "0",
        "type": "t_string_storage"
      },
      {
        "astId": 73,
        "contract": "contracts/DynamicSVG.sol:DynamicSVG",
        "label": "_symbol",
        "offset": 0,
        "slot": "1",
        "type": "t_string_storage"
      },
      {
        "astId": 77,
        "contract": "contracts/DynamicSVG.sol:DynamicSVG",
        "label": "_owners",
        "offset": 0,
        "slot": "2",
        "type": "t_mapping(t_uint256,t_address)"
      },
      {
        "astId": 81,
        "contract": "contracts/DynamicSVG.sol:DynamicSVG",
        "label": "_balances",
        "offset": 0,
        "slot": "3",
        "type": "t_mapping(t_address,t_uint256)"
      },
      {
        "astId": 85,
        "contract": "contracts/DynamicSVG.sol:DynamicSVG",
        "label": "_tokenApprovals",
        "offset": 0,
        "slot": "4",
        "type": "t_mapping(t_uint256,t_address)"
      },
      {
        "astId": 91,
        "contract": "contracts/DynamicSVG.sol:DynamicSVG",
        "label": "_operatorApprovals",
        "offset": 0,
        "slot": "5",
        "type": "t_mapping(t_address,t_mapping(t_address,t_bool))"
      },
      {
        "astId": 1786,
        "contract": "contracts/DynamicSVG.sol:DynamicSVG",
        "label": "s_tokenID",
        "offset": 0,
        "slot": "6",
        "type": "t_uint256"
      },
      {
        "astId": 1794,
        "contract": "contracts/DynamicSVG.sol:DynamicSVG",
        "label": "i_lowSvg",
        "offset": 0,
        "slot": "7",
        "type": "t_string_storage"
      },
      {
        "astId": 1796,
        "contract": "contracts/DynamicSVG.sol:DynamicSVG",
        "label": "i_highSvg",
        "offset": 0,
        "slot": "8",
        "type": "t_string_storage"
      },
      {
        "astId": 1799,
        "contract": "contracts/DynamicSVG.sol:DynamicSVG",
        "label": "priceFeed",
        "offset": 0,
        "slot": "9",
        "type": "t_contract(AggregatorV3Interface)45"
      }
    ],
    "types": {
      "t_address": {
        "encoding": "inplace",
        "label": "address",
        "numberOfBytes": "20"
      },
      "t_bool": {
        "encoding": "inplace",
        "label": "bool",
        "numberOfBytes": "1"
      },
      "t_contract(AggregatorV3Interface)45": {
        "encoding": "inplace",
        "label": "contract AggregatorV3Interface",
        "numberOfBytes": "20"
      },
      "t_mapping(t_address,t_bool)": {
        "encoding": "mapping",
        "key": "t_address",
        "label": "mapping(address => bool)",
        "numberOfBytes": "32",
        "value": "t_bool"
      },
      "t_mapping(t_address,t_mapping(t_address,t_bool))": {
        "encoding": "mapping",
        "key": "t_address",
        "label": "mapping(address => mapping(address => bool))",
        "numberOfBytes": "32",
        "value": "t_mapping(t_address,t_bool)"
      },
      "t_mapping(t_address,t_uint256)": {
        "encoding": "mapping",
        "key": "t_address",
        "label": "mapping(address => uint256)",
        "numberOfBytes": "32",
        "value": "t_uint256"
      },
      "t_mapping(t_uint256,t_address)": {
        "encoding": "mapping",
        "key": "t_uint256",
        "label": "mapping(uint256 => address)",
        "numberOfBytes": "32",
        "value": "t_address"
      },
      "t_string_storage": {
        "encoding": "bytes",
        "label": "string",
        "numberOfBytes": "32"
      },
      "t_uint256": {
        "encoding": "inplace",
        "label": "uint256",
        "numberOfBytes": "32"
      }
    }
  }
}